{
  "contractName": "RealEstateHelper",
  "abi": [
    {
      "constant": false,
      "inputs": [
        {
          "name": "realEstateId",
          "type": "uint256"
        }
      ],
      "name": "buyRealEstate",
      "outputs": [],
      "payable": false,
      "stateMutability": "nonpayable",
      "type": "function"
    },
    {
      "constant": true,
      "inputs": [
        {
          "name": "",
          "type": "uint256"
        }
      ],
      "name": "realEstateToOwner",
      "outputs": [
        {
          "name": "",
          "type": "address"
        }
      ],
      "payable": false,
      "stateMutability": "view",
      "type": "function"
    },
    {
      "constant": true,
      "inputs": [
        {
          "name": "",
          "type": "uint256"
        }
      ],
      "name": "realEstates",
      "outputs": [
        {
          "name": "typeEstate",
          "type": "string"
        },
        {
          "name": "adress",
          "type": "string"
        },
        {
          "name": "description",
          "type": "string"
        },
        {
          "name": "realEstateId",
          "type": "uint256"
        },
        {
          "name": "surface",
          "type": "uint256"
        },
        {
          "name": "price",
          "type": "uint256"
        },
        {
          "name": "vendorAdress",
          "type": "address"
        },
        {
          "name": "date",
          "type": "uint256"
        }
      ],
      "payable": false,
      "stateMutability": "view",
      "type": "function"
    },
    {
      "constant": false,
      "inputs": [
        {
          "name": "typeEstate",
          "type": "string"
        },
        {
          "name": "adress",
          "type": "string"
        },
        {
          "name": "description",
          "type": "string"
        },
        {
          "name": "realEstateId",
          "type": "uint256"
        },
        {
          "name": "surface",
          "type": "uint256"
        },
        {
          "name": "price",
          "type": "uint256"
        },
        {
          "name": "vendorAdress",
          "type": "address"
        },
        {
          "name": "date",
          "type": "uint256"
        }
      ],
      "name": "createRealEstate",
      "outputs": [],
      "payable": false,
      "stateMutability": "nonpayable",
      "type": "function"
    },
    {
      "anonymous": false,
      "inputs": [
        {
          "indexed": false,
          "name": "typeEstate",
          "type": "string"
        },
        {
          "indexed": false,
          "name": "adress",
          "type": "string"
        },
        {
          "indexed": false,
          "name": "description",
          "type": "string"
        },
        {
          "indexed": false,
          "name": "realEstateId",
          "type": "uint256"
        },
        {
          "indexed": false,
          "name": "surface",
          "type": "uint256"
        },
        {
          "indexed": false,
          "name": "price",
          "type": "uint256"
        },
        {
          "indexed": false,
          "name": "vendorAdress",
          "type": "address"
        },
        {
          "indexed": false,
          "name": "date",
          "type": "uint256"
        }
      ],
      "name": "NewRealEstate",
      "type": "event"
    },
    {
      "anonymous": false,
      "inputs": [
        {
          "indexed": false,
          "name": "typeEstate",
          "type": "string"
        },
        {
          "indexed": false,
          "name": "adress",
          "type": "string"
        },
        {
          "indexed": false,
          "name": "description",
          "type": "string"
        },
        {
          "indexed": false,
          "name": "realEstateId",
          "type": "uint256"
        },
        {
          "indexed": false,
          "name": "surface",
          "type": "uint256"
        },
        {
          "indexed": false,
          "name": "price",
          "type": "uint256"
        },
        {
          "indexed": false,
          "name": "vendorAdress",
          "type": "address"
        },
        {
          "indexed": false,
          "name": "date",
          "type": "uint256"
        }
      ],
      "name": "SellRealEstate",
      "type": "event"
    },
    {
      "constant": false,
      "inputs": [
        {
          "name": "_realEstateId",
          "type": "uint256"
        },
        {
          "name": "_newTypeEstate",
          "type": "string"
        }
      ],
      "name": "changeType",
      "outputs": [],
      "payable": false,
      "stateMutability": "nonpayable",
      "type": "function"
    },
    {
      "constant": false,
      "inputs": [
        {
          "name": "_realEstateId",
          "type": "uint256"
        },
        {
          "name": "_price",
          "type": "uint256"
        }
      ],
      "name": "changePrice",
      "outputs": [],
      "payable": false,
      "stateMutability": "nonpayable",
      "type": "function"
    },
    {
      "constant": false,
      "inputs": [
        {
          "name": "_realEstateId",
          "type": "uint256"
        },
        {
          "name": "_surface",
          "type": "uint256"
        }
      ],
      "name": "changeSurface",
      "outputs": [],
      "payable": false,
      "stateMutability": "nonpayable",
      "type": "function"
    },
    {
      "constant": true,
      "inputs": [
        {
          "name": "_owner",
          "type": "address"
        }
      ],
      "name": "getRealEstatesByOwner",
      "outputs": [
        {
          "name": "",
          "type": "uint256[]"
        }
      ],
      "payable": false,
      "stateMutability": "view",
      "type": "function"
    }
  ],
  "bytecode": "0x608060405234801561001057600080fd5b50611102806100206000396000f30060806040526004361061008e576000357c0100000000000000000000000000000000000000000000000000000000900463ffffffff1680630f6cebd41461009357806344c8c8a21461012b578063867e0f771461017057806388f690021461019d578063993959451461020a578063a30b5f17146103d7578063b3de019c1461040e578063c0ac472014610445575b600080fd5b34801561009f57600080fd5b506100d4600480360381019080803573ffffffffffffffffffffffffffffffffffffffff1690602001909291905050506104f8565b6040518080602001828103825283818151815260200191508051906020019060200280838360005b838110156101175780820151818401526020810190506100fc565b505050509050019250505060405180910390f35b34801561013757600080fd5b5061016e6004803603810190808035906020019092919080359060200190820180359060200191909192939192939050505061062a565b005b34801561017c57600080fd5b5061019b600480360381019080803590602001909291905050506106cc565b005b3480156101a957600080fd5b506101c860048036038101908080359060200190929190505050610898565b604051808273ffffffffffffffffffffffffffffffffffffffff1673ffffffffffffffffffffffffffffffffffffffff16815260200191505060405180910390f35b34801561021657600080fd5b50610235600480360381019080803590602001909291905050506108cb565b604051808060200180602001806020018981526020018881526020018781526020018673ffffffffffffffffffffffffffffffffffffffff1673ffffffffffffffffffffffffffffffffffffffff16815260200185815260200184810384528c818151815260200191508051906020019080838360005b838110156102c75780820151818401526020810190506102ac565b50505050905090810190601f1680156102f45780820380516001836020036101000a031916815260200191505b5084810383528b818151815260200191508051906020019080838360005b8381101561032d578082015181840152602081019050610312565b50505050905090810190601f16801561035a5780820380516001836020036101000a031916815260200191505b5084810382528a818151815260200191508051906020019080838360005b83811015610393578082015181840152602081019050610378565b50505050905090810190601f1680156103c05780820380516001836020036101000a031916815260200191505b509b50505050505050505050505060405180910390f35b3480156103e357600080fd5b5061040c6004803603810190808035906020019092919080359060200190929190505050610b0a565b005b34801561041a57600080fd5b506104436004803603810190808035906020019092919080359060200190929190505050610ba0565b005b34801561045157600080fd5b506104f6600480360381019080803590602001908201803590602001919091929391929390803590602001908201803590602001919091929391929390803590602001908201803590602001919091929391929390803590602001909291908035906020019092919080359060200190929190803573ffffffffffffffffffffffffffffffffffffffff16906020019092919080359060200190929190505050610c36565b005b606080600080600260008673ffffffffffffffffffffffffffffffffffffffff1673ffffffffffffffffffffffffffffffffffffffff1681526020019081526020016000205460405190808252806020026020018201604052801561056c5781602001602082028038833980820191505090505b50925060009150600090505b60008054905081101561061f578473ffffffffffffffffffffffffffffffffffffffff166001600083815260200190815260200160002060009054906101000a900473ffffffffffffffffffffffffffffffffffffffff1673ffffffffffffffffffffffffffffffffffffffff161415610612578083838151811015156105fb57fe5b906020019060200201818152505081806001019250505b8080600101915050610578565b829350505050919050565b6001600084815260200190815260200160002060009054906101000a900473ffffffffffffffffffffffffffffffffffffffff1673ffffffffffffffffffffffffffffffffffffffff163373ffffffffffffffffffffffffffffffffffffffff1614151561069757600080fd5b81816000858154811015156106a857fe5b906000526020600020906008020160000191906106c6929190610fb1565b50505050565b6000806000838154811015156106de57fe5b906000526020600020906008020191506001600084815260200190815260200160002060009054906101000a900473ffffffffffffffffffffffffffffffffffffffff169050808260060160006101000a81548173ffffffffffffffffffffffffffffffffffffffff021916908373ffffffffffffffffffffffffffffffffffffffff1602179055503373ffffffffffffffffffffffffffffffffffffffff168173ffffffffffffffffffffffffffffffffffffffff16141515156107a257600080fd5b336001600085815260200190815260200160002060006101000a81548173ffffffffffffffffffffffffffffffffffffffff021916908373ffffffffffffffffffffffffffffffffffffffff160217905550600260003373ffffffffffffffffffffffffffffffffffffffff1673ffffffffffffffffffffffffffffffffffffffff16815260200190815260200160002060008154809291906001019190505550600260008273ffffffffffffffffffffffffffffffffffffffff1673ffffffffffffffffffffffffffffffffffffffff1681526020019081526020016000206000815480929190600190039190505550505050565b60016020528060005260406000206000915054906101000a900473ffffffffffffffffffffffffffffffffffffffff1681565b6000818154811015156108da57fe5b9060005260206000209060080201600091509050806000018054600181600116156101000203166002900480601f0160208091040260200160405190810160405280929190818152602001828054600181600116156101000203166002900480156109865780601f1061095b57610100808354040283529160200191610986565b820191906000526020600020905b81548152906001019060200180831161096957829003601f168201915b505050505090806001018054600181600116156101000203166002900480601f016020809104026020016040519081016040528092919081815260200182805460018160011615610100020316600290048015610a245780601f106109f957610100808354040283529160200191610a24565b820191906000526020600020905b815481529060010190602001808311610a0757829003601f168201915b505050505090806002018054600181600116156101000203166002900480601f016020809104026020016040519081016040528092919081815260200182805460018160011615610100020316600290048015610ac25780601f10610a9757610100808354040283529160200191610ac2565b820191906000526020600020905b815481529060010190602001808311610aa557829003601f168201915b5050505050908060030154908060040154908060050154908060060160009054906101000a900473ffffffffffffffffffffffffffffffffffffffff16908060070154905088565b6001600083815260200190815260200160002060009054906101000a900473ffffffffffffffffffffffffffffffffffffffff1673ffffffffffffffffffffffffffffffffffffffff163373ffffffffffffffffffffffffffffffffffffffff16141515610b7757600080fd5b80600083815481101515610b8757fe5b9060005260206000209060080201600401819055505050565b6001600083815260200190815260200160002060009054906101000a900473ffffffffffffffffffffffffffffffffffffffff1673ffffffffffffffffffffffffffffffffffffffff163373ffffffffffffffffffffffffffffffffffffffff16141515610c0d57600080fd5b80600083815481101515610c1d57fe5b9060005260206000209060080201600501819055505050565b600060016000610100604051908101604052808f8f8080601f01602080910402602001604051908101604052809392919081815260200183838082843782019150505050505081526020018d8d8080601f01602080910402602001604051908101604052809392919081815260200183838082843782019150505050505081526020018b8b8080601f01602080910402602001604051908101604052809392919081815260200183838082843782019150505050505081526020018981526020018881526020018781526020018673ffffffffffffffffffffffffffffffffffffffff16815260200185815250908060018154018082558091505090600182039060005260206000209060080201600090919290919091506000820151816000019080519060200190610d6a929190611031565b506020820151816001019080519060200190610d87929190611031565b506040820151816002019080519060200190610da4929190611031565b50606082015181600301556080820151816004015560a0820151816005015560c08201518160060160006101000a81548173ffffffffffffffffffffffffffffffffffffffff021916908373ffffffffffffffffffffffffffffffffffffffff16021790555060e082015181600701555050039050336001600083815260200190815260200160002060006101000a81548173ffffffffffffffffffffffffffffffffffffffff021916908373ffffffffffffffffffffffffffffffffffffffff160217905550600260003373ffffffffffffffffffffffffffffffffffffffff1673ffffffffffffffffffffffffffffffffffffffff168152602001908152602001600020600081548092919060010191905055507f9fd8b7e261343663b92307f9832e0f507e2eb2047152780b9412f17ba5b7d7828c8c8c8c8c8c8c8c8c8c8c604051808060200180602001806020018981526020018881526020018781526020018673ffffffffffffffffffffffffffffffffffffffff1673ffffffffffffffffffffffffffffffffffffffff16815260200185815260200184810384528f8f82818152602001925080828437820191505084810383528d8d82818152602001925080828437820191505084810382528b8b8281815260200192508082843782019150509e50505050505050505050505050505060405180910390a1505050505050505050505050565b828054600181600116156101000203166002900490600052602060002090601f016020900481019282601f10610ff257803560ff1916838001178555611020565b82800160010185558215611020579182015b8281111561101f578235825591602001919060010190611004565b5b50905061102d91906110b1565b5090565b828054600181600116156101000203166002900490600052602060002090601f016020900481019282601f1061107257805160ff19168380011785556110a0565b828001600101855582156110a0579182015b8281111561109f578251825591602001919060010190611084565b5b5090506110ad91906110b1565b5090565b6110d391905b808211156110cf5760008160009055506001016110b7565b5090565b905600a165627a7a723058204dcf9b0f40b63bc82242751e7c63075504101e6d37ea5cd8b9a5f20f47ca61440029",
  "source": "//pragma solidity >=0.4.22 <0.9.0;\npragma solidity ^0.4.23;\n\n//import \"./RealEstateTrading.sol\";\nimport \"./RealEstateFactory.sol\";\ncontract RealEstateHelper is RealEstateFactory {\n\n  function changeType(uint _realEstateId, string _newTypeEstate) external {\n    require(msg.sender == RealEstateFactory.realEstateToOwner[_realEstateId]);\n    RealEstateFactory.realEstates[_realEstateId].typeEstate = _newTypeEstate;\n  }\n\n  function changePrice(uint _realEstateId, uint _price) external {\n    require(msg.sender == RealEstateFactory.realEstateToOwner[_realEstateId]);\n    RealEstateFactory.realEstates[_realEstateId].price = _price;\n  }\n\n  function changeSurface(uint _realEstateId, uint _surface) external {\n    require(msg.sender == RealEstateFactory.realEstateToOwner[_realEstateId]);\n    RealEstateFactory.realEstates[_realEstateId].surface = _surface;\n  }\n\n  function getRealEstatesByOwner(address _owner) external view returns(uint[]) {\n    uint[] memory result = new uint[](ownerRealEstateCount[_owner]);\n    uint counter = 0;\n    for (uint i = 0; i < realEstates.length; i++) {\n      if (realEstateToOwner[i] == _owner) {\n        result[counter] = i;\n        counter++;\n      }\n    }\n    return result;\n  }\n\n}\n",
  "sourcePath": "/Users/dmytrolutsyk/Desktop/ESGI/smartcontract/contracts/RealEstateHelper.sol",
  "compiler": {
    "name": "solc",
    "version": "0.4.23+commit.124ca40d.Emscripten.clang"
  },
  "schemaVersion": "3.4.7",
  "updatedAt": "2022-04-15T09:02:38.876Z",
  "devdoc": {
    "methods": {}
  },
  "userdoc": {
    "methods": {}
  }
}