{
  "contractName": "RealEstateHelper",
  "abi": [
    {
      "constant": false,
      "inputs": [
        {
          "name": "realEstateId",
          "type": "uint256"
        }
      ],
      "name": "buyRealEstate",
      "outputs": [],
      "payable": false,
      "stateMutability": "nonpayable",
      "type": "function"
    },
    {
      "constant": true,
      "inputs": [
        {
          "name": "",
          "type": "uint256"
        }
      ],
      "name": "realEstateToOwner",
      "outputs": [
        {
          "name": "",
          "type": "address"
        }
      ],
      "payable": false,
      "stateMutability": "view",
      "type": "function"
    },
    {
      "constant": true,
      "inputs": [
        {
          "name": "",
          "type": "uint256"
        }
      ],
      "name": "realEstates",
      "outputs": [
        {
          "name": "typeEstate",
          "type": "string"
        },
        {
          "name": "adress",
          "type": "string"
        },
        {
          "name": "description",
          "type": "string"
        },
        {
          "name": "docHash",
          "type": "string"
        },
        {
          "name": "surface",
          "type": "uint256"
        },
        {
          "name": "price",
          "type": "uint256"
        },
        {
          "name": "vendorAdress",
          "type": "address"
        },
        {
          "name": "pieceNumber",
          "type": "uint256"
        },
        {
          "name": "date",
          "type": "uint256"
        }
      ],
      "payable": false,
      "stateMutability": "view",
      "type": "function"
    },
    {
      "anonymous": false,
      "inputs": [
        {
          "indexed": false,
          "name": "typeEstate",
          "type": "string"
        },
        {
          "indexed": false,
          "name": "adress",
          "type": "string"
        },
        {
          "indexed": false,
          "name": "description",
          "type": "string"
        },
        {
          "indexed": false,
          "name": "docHash",
          "type": "string"
        },
        {
          "indexed": false,
          "name": "realEstateId",
          "type": "uint256"
        },
        {
          "indexed": false,
          "name": "surface",
          "type": "uint256"
        },
        {
          "indexed": false,
          "name": "price",
          "type": "uint256"
        },
        {
          "indexed": false,
          "name": "vendorAdress",
          "type": "address"
        },
        {
          "indexed": false,
          "name": "pieceNumber",
          "type": "uint256"
        },
        {
          "indexed": false,
          "name": "date",
          "type": "uint256"
        }
      ],
      "name": "NewRealEstate",
      "type": "event"
    },
    {
      "anonymous": false,
      "inputs": [
        {
          "indexed": false,
          "name": "typeEstate",
          "type": "string"
        },
        {
          "indexed": false,
          "name": "adress",
          "type": "string"
        },
        {
          "indexed": false,
          "name": "description",
          "type": "string"
        },
        {
          "indexed": false,
          "name": "docHash",
          "type": "string"
        },
        {
          "indexed": false,
          "name": "realEstateId",
          "type": "uint256"
        },
        {
          "indexed": false,
          "name": "surface",
          "type": "uint256"
        },
        {
          "indexed": false,
          "name": "price",
          "type": "uint256"
        },
        {
          "indexed": false,
          "name": "vendorAdress",
          "type": "address"
        },
        {
          "indexed": false,
          "name": "pieceNumber",
          "type": "uint256"
        },
        {
          "indexed": false,
          "name": "date",
          "type": "uint256"
        }
      ],
      "name": "SellRealEstate",
      "type": "event"
    },
    {
      "constant": false,
      "inputs": [
        {
          "name": "_realEstateId",
          "type": "uint256"
        },
        {
          "name": "_newTypeEstate",
          "type": "string"
        }
      ],
      "name": "changeName",
      "outputs": [],
      "payable": false,
      "stateMutability": "nonpayable",
      "type": "function"
    },
    {
      "constant": false,
      "inputs": [
        {
          "name": "_realEstateId",
          "type": "uint256"
        },
        {
          "name": "_price",
          "type": "uint256"
        }
      ],
      "name": "changePrice",
      "outputs": [],
      "payable": false,
      "stateMutability": "nonpayable",
      "type": "function"
    },
    {
      "constant": false,
      "inputs": [
        {
          "name": "_realEstateId",
          "type": "uint256"
        },
        {
          "name": "_surface",
          "type": "uint256"
        }
      ],
      "name": "changeSurface",
      "outputs": [],
      "payable": false,
      "stateMutability": "nonpayable",
      "type": "function"
    },
    {
      "constant": true,
      "inputs": [
        {
          "name": "_owner",
          "type": "address"
        }
      ],
      "name": "getRealEstatesByOwner",
      "outputs": [
        {
          "name": "",
          "type": "uint256[]"
        }
      ],
      "payable": false,
      "stateMutability": "view",
      "type": "function"
    }
  ],
  "bytecode": "0x608060405234801561001057600080fd5b50610d53806100206000396000f300608060405260043610610083576000357c0100000000000000000000000000000000000000000000000000000000900463ffffffff1680630f6cebd414610088578063867e0f771461012057806388f690021461014d57806399395945146101ba578063a30b5f17146103f3578063b3de019c1461042a578063c39cbef114610461575b600080fd5b34801561009457600080fd5b506100c9600480360381019080803573ffffffffffffffffffffffffffffffffffffffff1690602001909291905050506104a6565b6040518080602001828103825283818151815260200191508051906020019060200280838360005b8381101561010c5780820151818401526020810190506100f1565b505050509050019250505060405180910390f35b34801561012c57600080fd5b5061014b600480360381019080803590602001909291905050506105d8565b005b34801561015957600080fd5b50610178600480360381019080803590602001909291905050506107a4565b604051808273ffffffffffffffffffffffffffffffffffffffff1673ffffffffffffffffffffffffffffffffffffffff16815260200191505060405180910390f35b3480156101c657600080fd5b506101e5600480360381019080803590602001909291905050506107d7565b60405180806020018060200180602001806020018a81526020018981526020018873ffffffffffffffffffffffffffffffffffffffff1673ffffffffffffffffffffffffffffffffffffffff16815260200187815260200186815260200185810385528e818151815260200191508051906020019080838360005b8381101561027b578082015181840152602081019050610260565b50505050905090810190601f1680156102a85780820380516001836020036101000a031916815260200191505b5085810384528d818151815260200191508051906020019080838360005b838110156102e15780820151818401526020810190506102c6565b50505050905090810190601f16801561030e5780820380516001836020036101000a031916815260200191505b5085810383528c818151815260200191508051906020019080838360005b8381101561034757808201518184015260208101905061032c565b50505050905090810190601f1680156103745780820380516001836020036101000a031916815260200191505b5085810382528b818151815260200191508051906020019080838360005b838110156103ad578082015181840152602081019050610392565b50505050905090810190601f1680156103da5780820380516001836020036101000a031916815260200191505b509d505050505050505050505050505060405180910390f35b3480156103ff57600080fd5b506104286004803603810190808035906020019092919080359060200190929190505050610ab4565b005b34801561043657600080fd5b5061045f6004803603810190808035906020019092919080359060200190929190505050610b4a565b005b34801561046d57600080fd5b506104a460048036038101908080359060200190929190803590602001908201803590602001919091929391929390505050610be0565b005b606080600080600260008673ffffffffffffffffffffffffffffffffffffffff1673ffffffffffffffffffffffffffffffffffffffff1681526020019081526020016000205460405190808252806020026020018201604052801561051a5781602001602082028038833980820191505090505b50925060009150600090505b6000805490508110156105cd578473ffffffffffffffffffffffffffffffffffffffff166001600083815260200190815260200160002060009054906101000a900473ffffffffffffffffffffffffffffffffffffffff1673ffffffffffffffffffffffffffffffffffffffff1614156105c0578083838151811015156105a957fe5b906020019060200201818152505081806001019250505b8080600101915050610526565b829350505050919050565b6000806000838154811015156105ea57fe5b906000526020600020906009020191506001600084815260200190815260200160002060009054906101000a900473ffffffffffffffffffffffffffffffffffffffff169050808260060160006101000a81548173ffffffffffffffffffffffffffffffffffffffff021916908373ffffffffffffffffffffffffffffffffffffffff1602179055503373ffffffffffffffffffffffffffffffffffffffff168173ffffffffffffffffffffffffffffffffffffffff16141515156106ae57600080fd5b336001600085815260200190815260200160002060006101000a81548173ffffffffffffffffffffffffffffffffffffffff021916908373ffffffffffffffffffffffffffffffffffffffff160217905550600260003373ffffffffffffffffffffffffffffffffffffffff1673ffffffffffffffffffffffffffffffffffffffff16815260200190815260200160002060008154809291906001019190505550600260008273ffffffffffffffffffffffffffffffffffffffff1673ffffffffffffffffffffffffffffffffffffffff1681526020019081526020016000206000815480929190600190039190505550505050565b60016020528060005260406000206000915054906101000a900473ffffffffffffffffffffffffffffffffffffffff1681565b6000818154811015156107e657fe5b9060005260206000209060090201600091509050806000018054600181600116156101000203166002900480601f0160208091040260200160405190810160405280929190818152602001828054600181600116156101000203166002900480156108925780601f1061086757610100808354040283529160200191610892565b820191906000526020600020905b81548152906001019060200180831161087557829003601f168201915b505050505090806001018054600181600116156101000203166002900480601f0160208091040260200160405190810160405280929190818152602001828054600181600116156101000203166002900480156109305780601f1061090557610100808354040283529160200191610930565b820191906000526020600020905b81548152906001019060200180831161091357829003601f168201915b505050505090806002018054600181600116156101000203166002900480601f0160208091040260200160405190810160405280929190818152602001828054600181600116156101000203166002900480156109ce5780601f106109a3576101008083540402835291602001916109ce565b820191906000526020600020905b8154815290600101906020018083116109b157829003601f168201915b505050505090806003018054600181600116156101000203166002900480601f016020809104026020016040519081016040528092919081815260200182805460018160011615610100020316600290048015610a6c5780601f10610a4157610100808354040283529160200191610a6c565b820191906000526020600020905b815481529060010190602001808311610a4f57829003601f168201915b5050505050908060040154908060050154908060060160009054906101000a900473ffffffffffffffffffffffffffffffffffffffff16908060070154908060080154905089565b6001600083815260200190815260200160002060009054906101000a900473ffffffffffffffffffffffffffffffffffffffff1673ffffffffffffffffffffffffffffffffffffffff163373ffffffffffffffffffffffffffffffffffffffff16141515610b2157600080fd5b80600083815481101515610b3157fe5b9060005260206000209060090201600401819055505050565b6001600083815260200190815260200160002060009054906101000a900473ffffffffffffffffffffffffffffffffffffffff1673ffffffffffffffffffffffffffffffffffffffff163373ffffffffffffffffffffffffffffffffffffffff16141515610bb757600080fd5b80600083815481101515610bc757fe5b9060005260206000209060090201600501819055505050565b6001600084815260200190815260200160002060009054906101000a900473ffffffffffffffffffffffffffffffffffffffff1673ffffffffffffffffffffffffffffffffffffffff163373ffffffffffffffffffffffffffffffffffffffff16141515610c4d57600080fd5b8181600085815481101515610c5e57fe5b90600052602060002090600902016000019190610c7c929190610c82565b50505050565b828054600181600116156101000203166002900490600052602060002090601f016020900481019282601f10610cc357803560ff1916838001178555610cf1565b82800160010185558215610cf1579182015b82811115610cf0578235825591602001919060010190610cd5565b5b509050610cfe9190610d02565b5090565b610d2491905b80821115610d20576000816000905550600101610d08565b5090565b905600a165627a7a72305820f8ba2506d3b6707f85fc47daf5d83721cef73e84970437fe1aa1a08190709fde0029",
  "source": "//pragma solidity >=0.4.22 <0.9.0;\npragma solidity ^0.4.23;\n\n//import \"./RealEstateTrading.sol\";\nimport \"./RealEstateFactory.sol\";\ncontract RealEstateHelper is RealEstateFactory {\n\n  function changeName(uint _realEstateId, string _newTypeEstate) external {\n    require(msg.sender == RealEstateFactory.realEstateToOwner[_realEstateId]);\n    RealEstateFactory.realEstates[_realEstateId].typeEstate = _newTypeEstate;\n  }\n\n  function changePrice(uint _realEstateId, uint _price) external {\n    require(msg.sender == RealEstateFactory.realEstateToOwner[_realEstateId]);\n    RealEstateFactory.realEstates[_realEstateId].price = _price;\n  }\n\n  function changeSurface(uint _realEstateId, uint _surface) external {\n    require(msg.sender == RealEstateFactory.realEstateToOwner[_realEstateId]);\n    RealEstateFactory.realEstates[_realEstateId].surface = _surface;\n  }\n\n  function getRealEstatesByOwner(address _owner) external view returns(uint[]) {\n    uint[] memory result = new uint[](ownerRealEstateCount[_owner]);\n    uint counter = 0;\n    for (uint i = 0; i < realEstates.length; i++) {\n      if (realEstateToOwner[i] == _owner) {\n        result[counter] = i;\n        counter++;\n      }\n    }\n    return result;\n  }\n\n}\n",
  "sourcePath": "/Users/dmytrolutsyk/Desktop/ESGI/smartcontract/contracts/RealEstateHelper.sol",
  "compiler": {
    "name": "solc",
    "version": "0.4.23+commit.124ca40d.Emscripten.clang"
  },
  "schemaVersion": "3.4.7",
  "updatedAt": "2022-04-14T14:41:09.153Z",
  "devdoc": {
    "methods": {}
  },
  "userdoc": {
    "methods": {}
  }
}