{
  "contractName": "RealEstateFactory",
  "abi": [
    {
      "constant": true,
      "inputs": [
        {
          "name": "",
          "type": "uint256"
        }
      ],
      "name": "realEstateToOwner",
      "outputs": [
        {
          "name": "",
          "type": "address"
        }
      ],
      "payable": false,
      "stateMutability": "view",
      "type": "function"
    },
    {
      "constant": true,
      "inputs": [
        {
          "name": "",
          "type": "uint256"
        }
      ],
      "name": "realEstates",
      "outputs": [
        {
          "name": "typeEstate",
          "type": "string"
        },
        {
          "name": "adress",
          "type": "string"
        },
        {
          "name": "description",
          "type": "string"
        },
        {
          "name": "docHash",
          "type": "string"
        },
        {
          "name": "surface",
          "type": "uint256"
        },
        {
          "name": "price",
          "type": "uint256"
        },
        {
          "name": "vendorAdress",
          "type": "address"
        },
        {
          "name": "pieceNumber",
          "type": "uint256"
        },
        {
          "name": "date",
          "type": "uint256"
        }
      ],
      "payable": false,
      "stateMutability": "view",
      "type": "function"
    },
    {
      "anonymous": false,
      "inputs": [
        {
          "indexed": false,
          "name": "typeEstate",
          "type": "string"
        },
        {
          "indexed": false,
          "name": "adress",
          "type": "string"
        },
        {
          "indexed": false,
          "name": "description",
          "type": "string"
        },
        {
          "indexed": false,
          "name": "docHash",
          "type": "string"
        },
        {
          "indexed": false,
          "name": "realEstateId",
          "type": "uint256"
        },
        {
          "indexed": false,
          "name": "surface",
          "type": "uint256"
        },
        {
          "indexed": false,
          "name": "price",
          "type": "uint256"
        },
        {
          "indexed": false,
          "name": "vendorAdress",
          "type": "address"
        },
        {
          "indexed": false,
          "name": "pieceNumber",
          "type": "uint256"
        },
        {
          "indexed": false,
          "name": "date",
          "type": "uint256"
        }
      ],
      "name": "NewRealEstate",
      "type": "event"
    }
  ],
  "bytecode": "0x608060405234801561001057600080fd5b50610633806100206000396000f30060806040526004361061004c576000357c0100000000000000000000000000000000000000000000000000000000900463ffffffff16806388f690021461005157806399395945146100be575b600080fd5b34801561005d57600080fd5b5061007c600480360381019080803590602001909291905050506102f7565b604051808273ffffffffffffffffffffffffffffffffffffffff1673ffffffffffffffffffffffffffffffffffffffff16815260200191505060405180910390f35b3480156100ca57600080fd5b506100e96004803603810190808035906020019092919050505061032a565b60405180806020018060200180602001806020018a81526020018981526020018873ffffffffffffffffffffffffffffffffffffffff1673ffffffffffffffffffffffffffffffffffffffff16815260200187815260200186815260200185810385528e818151815260200191508051906020019080838360005b8381101561017f578082015181840152602081019050610164565b50505050905090810190601f1680156101ac5780820380516001836020036101000a031916815260200191505b5085810384528d818151815260200191508051906020019080838360005b838110156101e55780820151818401526020810190506101ca565b50505050905090810190601f1680156102125780820380516001836020036101000a031916815260200191505b5085810383528c818151815260200191508051906020019080838360005b8381101561024b578082015181840152602081019050610230565b50505050905090810190601f1680156102785780820380516001836020036101000a031916815260200191505b5085810382528b818151815260200191508051906020019080838360005b838110156102b1578082015181840152602081019050610296565b50505050905090810190601f1680156102de5780820380516001836020036101000a031916815260200191505b509d505050505050505050505050505060405180910390f35b60016020528060005260406000206000915054906101000a900473ffffffffffffffffffffffffffffffffffffffff1681565b60008181548110151561033957fe5b9060005260206000209060090201600091509050806000018054600181600116156101000203166002900480601f0160208091040260200160405190810160405280929190818152602001828054600181600116156101000203166002900480156103e55780601f106103ba576101008083540402835291602001916103e5565b820191906000526020600020905b8154815290600101906020018083116103c857829003601f168201915b505050505090806001018054600181600116156101000203166002900480601f0160208091040260200160405190810160405280929190818152602001828054600181600116156101000203166002900480156104835780601f1061045857610100808354040283529160200191610483565b820191906000526020600020905b81548152906001019060200180831161046657829003601f168201915b505050505090806002018054600181600116156101000203166002900480601f0160208091040260200160405190810160405280929190818152602001828054600181600116156101000203166002900480156105215780601f106104f657610100808354040283529160200191610521565b820191906000526020600020905b81548152906001019060200180831161050457829003601f168201915b505050505090806003018054600181600116156101000203166002900480601f0160208091040260200160405190810160405280929190818152602001828054600181600116156101000203166002900480156105bf5780601f10610594576101008083540402835291602001916105bf565b820191906000526020600020905b8154815290600101906020018083116105a257829003601f168201915b5050505050908060040154908060050154908060060160009054906101000a900473ffffffffffffffffffffffffffffffffffffffff169080600701549080600801549050895600a165627a7a72305820ffb405a60f48ce9733eeea056906e2e3c4d77e4c795c9d5a3cba53bf735784560029",
  "source": "//pragma solidity >=0.4.22 <0.9.0;\npragma solidity ^0.4.23;\n\n//import \"./ownable.sol\";\n\ncontract RealEstateFactory {\n\n    event NewRealEstate(string typeEstate, string adress, string description, string docHash, uint realEstateId, uint surface, uint price, address vendorAdress, uint pieceNumber, uint date);\n\n    struct RealEstate {\n      string typeEstate;\n      string adress;\n      string description;\n      string docHash;\n      uint surface;\n      uint price;\n      address vendorAdress;\n      uint pieceNumber;\n      uint date;\n    }\n\n    RealEstate[] public realEstates;\n\n    mapping (uint => address) public realEstateToOwner;\n    mapping (address => uint) ownerRealEstateCount;\n\n    function _createRealEstate(string _typeEstate, string _adress, string _description, string _docHash, uint _realEstateId, uint _surface, uint _price, address _vendorAdress, uint _pieceNumber, uint _date) internal {\n        uint id = realEstates.push(RealEstate(_typeEstate, _adress, _description, _docHash, _surface, _price, _vendorAdress, _pieceNumber, _date)) - 1;\n        realEstateToOwner[id] = msg.sender;\n        ownerRealEstateCount[msg.sender]++;\n        emit NewRealEstate(_typeEstate, _adress, _description, _docHash, _realEstateId, _surface, _price, _vendorAdress, _pieceNumber, _date);\n    }\n\n}\n",
  "sourcePath": "/Users/dmytrolutsyk/Desktop/ESGI/smartcontract/contracts/RealEstateFactory.sol",
  "compiler": {
    "name": "solc",
    "version": "0.4.23+commit.124ca40d.Emscripten.clang"
  },
  "schemaVersion": "3.4.7",
  "updatedAt": "2022-04-14T13:38:19.727Z",
  "networkType": "ethereum",
  "devdoc": {
    "methods": {}
  },
  "userdoc": {
    "methods": {}
  }
}