{
  "contractName": "RealEstateHelper",
  "abi": [
    {
      "anonymous": false,
      "inputs": [
        {
          "indexed": false,
          "internalType": "string",
          "name": "typeEstate",
          "type": "string"
        },
        {
          "indexed": false,
          "internalType": "string",
          "name": "adress",
          "type": "string"
        },
        {
          "indexed": false,
          "internalType": "string",
          "name": "description",
          "type": "string"
        },
        {
          "indexed": false,
          "internalType": "uint256",
          "name": "realEstateId",
          "type": "uint256"
        },
        {
          "indexed": false,
          "internalType": "uint256",
          "name": "surface",
          "type": "uint256"
        },
        {
          "indexed": false,
          "internalType": "uint256",
          "name": "price",
          "type": "uint256"
        },
        {
          "indexed": false,
          "internalType": "address",
          "name": "vendorAdress",
          "type": "address"
        },
        {
          "indexed": false,
          "internalType": "uint256",
          "name": "date",
          "type": "uint256"
        }
      ],
      "name": "NewRealEstate",
      "type": "event"
    },
    {
      "anonymous": false,
      "inputs": [
        {
          "indexed": false,
          "internalType": "string",
          "name": "typeEstate",
          "type": "string"
        },
        {
          "indexed": false,
          "internalType": "string",
          "name": "adress",
          "type": "string"
        },
        {
          "indexed": false,
          "internalType": "string",
          "name": "description",
          "type": "string"
        },
        {
          "indexed": false,
          "internalType": "uint256",
          "name": "realEstateId",
          "type": "uint256"
        },
        {
          "indexed": false,
          "internalType": "uint256",
          "name": "surface",
          "type": "uint256"
        },
        {
          "indexed": false,
          "internalType": "uint256",
          "name": "price",
          "type": "uint256"
        },
        {
          "indexed": false,
          "internalType": "address",
          "name": "vendorAdress",
          "type": "address"
        },
        {
          "indexed": false,
          "internalType": "uint256",
          "name": "date",
          "type": "uint256"
        }
      ],
      "name": "SellRealEstate",
      "type": "event"
    },
    {
      "inputs": [
        {
          "internalType": "uint256",
          "name": "realEstateId",
          "type": "uint256"
        }
      ],
      "name": "buyRealEstate",
      "outputs": [],
      "stateMutability": "nonpayable",
      "type": "function"
    },
    {
      "inputs": [
        {
          "internalType": "string",
          "name": "typeEstate",
          "type": "string"
        },
        {
          "internalType": "string",
          "name": "adress",
          "type": "string"
        },
        {
          "internalType": "string",
          "name": "description",
          "type": "string"
        },
        {
          "internalType": "uint256",
          "name": "realEstateId",
          "type": "uint256"
        },
        {
          "internalType": "uint256",
          "name": "surface",
          "type": "uint256"
        },
        {
          "internalType": "uint256",
          "name": "price",
          "type": "uint256"
        },
        {
          "internalType": "address",
          "name": "vendorAdress",
          "type": "address"
        },
        {
          "internalType": "uint256",
          "name": "date",
          "type": "uint256"
        }
      ],
      "name": "createRealEstate",
      "outputs": [
        {
          "components": [
            {
              "internalType": "string",
              "name": "typeEstate",
              "type": "string"
            },
            {
              "internalType": "string",
              "name": "adress",
              "type": "string"
            },
            {
              "internalType": "string",
              "name": "description",
              "type": "string"
            },
            {
              "internalType": "uint256",
              "name": "realEstateId",
              "type": "uint256"
            },
            {
              "internalType": "uint256",
              "name": "surface",
              "type": "uint256"
            },
            {
              "internalType": "uint256",
              "name": "price",
              "type": "uint256"
            },
            {
              "internalType": "address",
              "name": "vendorAdress",
              "type": "address"
            },
            {
              "internalType": "uint256",
              "name": "date",
              "type": "uint256"
            }
          ],
          "internalType": "struct RealEstateFactory.RealEstate",
          "name": "",
          "type": "tuple"
        }
      ],
      "stateMutability": "nonpayable",
      "type": "function"
    },
    {
      "inputs": [
        {
          "internalType": "uint256",
          "name": "",
          "type": "uint256"
        }
      ],
      "name": "realEstateToOwner",
      "outputs": [
        {
          "internalType": "address",
          "name": "",
          "type": "address"
        }
      ],
      "stateMutability": "view",
      "type": "function"
    },
    {
      "inputs": [
        {
          "internalType": "uint256",
          "name": "",
          "type": "uint256"
        }
      ],
      "name": "realEstates",
      "outputs": [
        {
          "internalType": "string",
          "name": "typeEstate",
          "type": "string"
        },
        {
          "internalType": "string",
          "name": "adress",
          "type": "string"
        },
        {
          "internalType": "string",
          "name": "description",
          "type": "string"
        },
        {
          "internalType": "uint256",
          "name": "realEstateId",
          "type": "uint256"
        },
        {
          "internalType": "uint256",
          "name": "surface",
          "type": "uint256"
        },
        {
          "internalType": "uint256",
          "name": "price",
          "type": "uint256"
        },
        {
          "internalType": "address",
          "name": "vendorAdress",
          "type": "address"
        },
        {
          "internalType": "uint256",
          "name": "date",
          "type": "uint256"
        }
      ],
      "stateMutability": "view",
      "type": "function"
    },
    {
      "inputs": [
        {
          "internalType": "uint256",
          "name": "_realEstateId",
          "type": "uint256"
        },
        {
          "internalType": "string",
          "name": "_newTypeEstate",
          "type": "string"
        }
      ],
      "name": "changeType",
      "outputs": [],
      "stateMutability": "nonpayable",
      "type": "function"
    },
    {
      "inputs": [
        {
          "internalType": "uint256",
          "name": "_realEstateId",
          "type": "uint256"
        },
        {
          "internalType": "uint256",
          "name": "_price",
          "type": "uint256"
        }
      ],
      "name": "changePrice",
      "outputs": [],
      "stateMutability": "nonpayable",
      "type": "function"
    },
    {
      "inputs": [
        {
          "internalType": "uint256",
          "name": "_realEstateId",
          "type": "uint256"
        },
        {
          "internalType": "uint256",
          "name": "_surface",
          "type": "uint256"
        }
      ],
      "name": "changeSurface",
      "outputs": [],
      "stateMutability": "nonpayable",
      "type": "function"
    },
    {
      "inputs": [
        {
          "internalType": "address",
          "name": "_owner",
          "type": "address"
        }
      ],
      "name": "getRealEstatesByOwner",
      "outputs": [
        {
          "internalType": "uint256[]",
          "name": "",
          "type": "uint256[]"
        }
      ],
      "stateMutability": "view",
      "type": "function"
    }
  ],
  "bytecode": "0x608060405234801561001057600080fd5b50611950806100206000396000f3fe608060405234801561001057600080fd5b50600436106100885760003560e01c8063993959451161005b5780639939594514610125578063a30b5f171461015c578063b3de019c14610178578063c0ac47201461019457610088565b80630f6cebd41461008d57806344c8c8a2146100bd578063867e0f77146100d957806388f69002146100f5575b600080fd5b6100a760048036038101906100a29190611088565b6101c4565b6040516100b4919061117d565b60405180910390f35b6100d760048036038101906100d29190611230565b610316565b005b6100f360048036038101906100ee9190611290565b6103bb565b005b61010f600480360381019061010a9190611290565b610594565b60405161011c91906112cc565b60405180910390f35b61013f600480360381019061013a9190611290565b6105c7565b60405161015398979695949392919061138f565b60405180910390f35b61017660048036038101906101719190611422565b6107d7565b005b610192600480360381019061018d9190611422565b610870565b005b6101ae60048036038101906101a99190611462565b610909565b6040516101bb9190611691565b60405180910390f35b60606000600260008473ffffffffffffffffffffffffffffffffffffffff1673ffffffffffffffffffffffffffffffffffffffff1681526020019081526020016000205467ffffffffffffffff811115610221576102206116b3565b5b60405190808252806020026020018201604052801561024f5781602001602082028036833780820191505090505b5090506000805b60008054905081101561030b578473ffffffffffffffffffffffffffffffffffffffff166001600083815260200190815260200160002060009054906101000a900473ffffffffffffffffffffffffffffffffffffffff1673ffffffffffffffffffffffffffffffffffffffff16036102f857808383815181106102dd576102dc6116e2565b5b60200260200101818152505081806102f490611740565b9250505b808061030390611740565b915050610256565b508192505050919050565b6001600084815260200190815260200160002060009054906101000a900473ffffffffffffffffffffffffffffffffffffffff1673ffffffffffffffffffffffffffffffffffffffff163373ffffffffffffffffffffffffffffffffffffffff161461038157600080fd5b818160008581548110610397576103966116e2565b5b906000526020600020906008020160000191906103b5929190610e9c565b50505050565b60008082815481106103d0576103cf6116e2565b5b9060005260206000209060080201905060006001600084815260200190815260200160002060009054906101000a900473ffffffffffffffffffffffffffffffffffffffff169050808260060160006101000a81548173ffffffffffffffffffffffffffffffffffffffff021916908373ffffffffffffffffffffffffffffffffffffffff1602179055503373ffffffffffffffffffffffffffffffffffffffff168173ffffffffffffffffffffffffffffffffffffffff160361049357600080fd5b336001600085815260200190815260200160002060006101000a81548173ffffffffffffffffffffffffffffffffffffffff021916908373ffffffffffffffffffffffffffffffffffffffff160217905550600260003373ffffffffffffffffffffffffffffffffffffffff1673ffffffffffffffffffffffffffffffffffffffff168152602001908152602001600020600081548092919061053590611740565b9190505550600260008273ffffffffffffffffffffffffffffffffffffffff1673ffffffffffffffffffffffffffffffffffffffff168152602001908152602001600020600081548092919061058a90611788565b9190505550505050565b60016020528060005260406000206000915054906101000a900473ffffffffffffffffffffffffffffffffffffffff1681565b600081815481106105d757600080fd5b90600052602060002090600802016000915090508060000180546105fa906117e0565b80601f0160208091040260200160405190810160405280929190818152602001828054610626906117e0565b80156106735780601f1061064857610100808354040283529160200191610673565b820191906000526020600020905b81548152906001019060200180831161065657829003601f168201915b505050505090806001018054610688906117e0565b80601f01602080910402602001604051908101604052809291908181526020018280546106b4906117e0565b80156107015780601f106106d657610100808354040283529160200191610701565b820191906000526020600020905b8154815290600101906020018083116106e457829003601f168201915b505050505090806002018054610716906117e0565b80601f0160208091040260200160405190810160405280929190818152602001828054610742906117e0565b801561078f5780601f106107645761010080835404028352916020019161078f565b820191906000526020600020905b81548152906001019060200180831161077257829003601f168201915b5050505050908060030154908060040154908060050154908060060160009054906101000a900473ffffffffffffffffffffffffffffffffffffffff16908060070154905088565b6001600083815260200190815260200160002060009054906101000a900473ffffffffffffffffffffffffffffffffffffffff1673ffffffffffffffffffffffffffffffffffffffff163373ffffffffffffffffffffffffffffffffffffffff161461084257600080fd5b8060008381548110610857576108566116e2565b5b9060005260206000209060080201600401819055505050565b6001600083815260200190815260200160002060009054906101000a900473ffffffffffffffffffffffffffffffffffffffff1673ffffffffffffffffffffffffffffffffffffffff163373ffffffffffffffffffffffffffffffffffffffff16146108db57600080fd5b80600083815481106108f0576108ef6116e2565b5b9060005260206000209060080201600501819055505050565b610911610f22565b60006040518061010001604052808e8e8080601f016020809104026020016040519081016040528093929190818152602001838380828437600081840152601f19601f8201169050808301925050505050505081526020018c8c8080601f016020809104026020016040519081016040528093929190818152602001838380828437600081840152601f19601f8201169050808301925050505050505081526020018a8a8080601f016020809104026020016040519081016040528093929190818152602001838380828437600081840152601f19601f8201169050808301925050505050505081526020018881526020018781526020018681526020018573ffffffffffffffffffffffffffffffffffffffff1681526020018481525090806001815401808255809150506001900390600052602060002090600802016000909190919091506000820151816000019080519060200190610a74929190610f7d565b506020820151816001019080519060200190610a91929190610f7d565b506040820151816002019080519060200190610aae929190610f7d565b50606082015181600301556080820151816004015560a0820151816005015560c08201518160060160006101000a81548173ffffffffffffffffffffffffffffffffffffffff021916908373ffffffffffffffffffffffffffffffffffffffff16021790555060e08201518160070155505060006001600080549050610b349190611811565b9050336001600083815260200190815260200160002060006101000a81548173ffffffffffffffffffffffffffffffffffffffff021916908373ffffffffffffffffffffffffffffffffffffffff160217905550600260003373ffffffffffffffffffffffffffffffffffffffff1673ffffffffffffffffffffffffffffffffffffffff1681526020019081526020016000206000815480929190610bd890611740565b91905055507f9fd8b7e261343663b92307f9832e0f507e2eb2047152780b9412f17ba5b7d7828d8d8d8d8d8d8d8d8d8d8d604051610c209b9a99989796959493929190611881565b60405180910390a160008181548110610c3c57610c3b6116e2565b5b906000526020600020906008020160405180610100016040529081600082018054610c66906117e0565b80601f0160208091040260200160405190810160405280929190818152602001828054610c92906117e0565b8015610cdf5780601f10610cb457610100808354040283529160200191610cdf565b820191906000526020600020905b815481529060010190602001808311610cc257829003601f168201915b50505050508152602001600182018054610cf8906117e0565b80601f0160208091040260200160405190810160405280929190818152602001828054610d24906117e0565b8015610d715780601f10610d4657610100808354040283529160200191610d71565b820191906000526020600020905b815481529060010190602001808311610d5457829003601f168201915b50505050508152602001600282018054610d8a906117e0565b80601f0160208091040260200160405190810160405280929190818152602001828054610db6906117e0565b8015610e035780601f10610dd857610100808354040283529160200191610e03565b820191906000526020600020905b815481529060010190602001808311610de657829003601f168201915b505050505081526020016003820154815260200160048201548152602001600582015481526020016006820160009054906101000a900473ffffffffffffffffffffffffffffffffffffffff1673ffffffffffffffffffffffffffffffffffffffff1673ffffffffffffffffffffffffffffffffffffffff1681526020016007820154815250509150509b9a5050505050505050505050565b828054610ea8906117e0565b90600052602060002090601f016020900481019282610eca5760008555610f11565b82601f10610ee357803560ff1916838001178555610f11565b82800160010185558215610f11579182015b82811115610f10578235825591602001919060010190610ef5565b5b509050610f1e9190611003565b5090565b604051806101000160405280606081526020016060815260200160608152602001600081526020016000815260200160008152602001600073ffffffffffffffffffffffffffffffffffffffff168152602001600081525090565b828054610f89906117e0565b90600052602060002090601f016020900481019282610fab5760008555610ff2565b82601f10610fc457805160ff1916838001178555610ff2565b82800160010185558215610ff2579182015b82811115610ff1578251825591602001919060010190610fd6565b5b509050610fff9190611003565b5090565b5b8082111561101c576000816000905550600101611004565b5090565b600080fd5b600080fd5b600073ffffffffffffffffffffffffffffffffffffffff82169050919050565b60006110558261102a565b9050919050565b6110658161104a565b811461107057600080fd5b50565b6000813590506110828161105c565b92915050565b60006020828403121561109e5761109d611020565b5b60006110ac84828501611073565b91505092915050565b600081519050919050565b600082825260208201905092915050565b6000819050602082019050919050565b6000819050919050565b6110f4816110e1565b82525050565b600061110683836110eb565b60208301905092915050565b6000602082019050919050565b600061112a826110b5565b61113481856110c0565b935061113f836110d1565b8060005b8381101561117057815161115788826110fa565b975061116283611112565b925050600181019050611143565b5085935050505092915050565b60006020820190508181036000830152611197818461111f565b905092915050565b6111a8816110e1565b81146111b357600080fd5b50565b6000813590506111c58161119f565b92915050565b600080fd5b600080fd5b600080fd5b60008083601f8401126111f0576111ef6111cb565b5b8235905067ffffffffffffffff81111561120d5761120c6111d0565b5b602083019150836001820283011115611229576112286111d5565b5b9250929050565b60008060006040848603121561124957611248611020565b5b6000611257868287016111b6565b935050602084013567ffffffffffffffff81111561127857611277611025565b5b611284868287016111da565b92509250509250925092565b6000602082840312156112a6576112a5611020565b5b60006112b4848285016111b6565b91505092915050565b6112c68161104a565b82525050565b60006020820190506112e160008301846112bd565b92915050565b600081519050919050565b600082825260208201905092915050565b60005b83811015611321578082015181840152602081019050611306565b83811115611330576000848401525b50505050565b6000601f19601f8301169050919050565b6000611352826112e7565b61135c81856112f2565b935061136c818560208601611303565b61137581611336565b840191505092915050565b611389816110e1565b82525050565b60006101008201905081810360008301526113aa818b611347565b905081810360208301526113be818a611347565b905081810360408301526113d28189611347565b90506113e16060830188611380565b6113ee6080830187611380565b6113fb60a0830186611380565b61140860c08301856112bd565b61141560e0830184611380565b9998505050505050505050565b6000806040838503121561143957611438611020565b5b6000611447858286016111b6565b9250506020611458858286016111b6565b9150509250929050565b60008060008060008060008060008060006101008c8e03121561148857611487611020565b5b60008c013567ffffffffffffffff8111156114a6576114a5611025565b5b6114b28e828f016111da565b9b509b505060208c013567ffffffffffffffff8111156114d5576114d4611025565b5b6114e18e828f016111da565b995099505060408c013567ffffffffffffffff81111561150457611503611025565b5b6115108e828f016111da565b975097505060606115238e828f016111b6565b95505060806115348e828f016111b6565b94505060a06115458e828f016111b6565b93505060c06115568e828f01611073565b92505060e06115678e828f016111b6565b9150509295989b509295989b9093969950565b600082825260208201905092915050565b6000611596826112e7565b6115a0818561157a565b93506115b0818560208601611303565b6115b981611336565b840191505092915050565b6115cd8161104a565b82525050565b60006101008301600083015184820360008601526115f1828261158b565b9150506020830151848203602086015261160b828261158b565b91505060408301518482036040860152611625828261158b565b915050606083015161163a60608601826110eb565b50608083015161164d60808601826110eb565b5060a083015161166060a08601826110eb565b5060c083015161167360c08601826115c4565b5060e083015161168660e08601826110eb565b508091505092915050565b600060208201905081810360008301526116ab81846115d3565b905092915050565b7f4e487b7100000000000000000000000000000000000000000000000000000000600052604160045260246000fd5b7f4e487b7100000000000000000000000000000000000000000000000000000000600052603260045260246000fd5b7f4e487b7100000000000000000000000000000000000000000000000000000000600052601160045260246000fd5b600061174b826110e1565b91507fffffffffffffffffffffffffffffffffffffffffffffffffffffffffffffffff820361177d5761177c611711565b5b600182019050919050565b6000611793826110e1565b9150600082036117a6576117a5611711565b5b600182039050919050565b7f4e487b7100000000000000000000000000000000000000000000000000000000600052602260045260246000fd5b600060028204905060018216806117f857607f821691505b60208210810361180b5761180a6117b1565b5b50919050565b600061181c826110e1565b9150611827836110e1565b92508282101561183a57611839611711565b5b828203905092915050565b82818337600083830152505050565b600061186083856112f2565b935061186d838584611845565b61187683611336565b840190509392505050565b600061010082019050818103600083015261189d818d8f611854565b905081810360208301526118b2818b8d611854565b905081810360408301526118c781898b611854565b90506118d66060830188611380565b6118e36080830187611380565b6118f060a0830186611380565b6118fd60c08301856112bd565b61190a60e0830184611380565b9c9b50505050505050505050505056fea264697066735822122099b8530dc903c5dfb1beb52bd13de2af1d2e638774a0190cebcc8d61e5be979c64736f6c634300080d0033",
  "immutableReferences": {},
  "source": "pragma solidity >=0.4.22 <0.9.0;\n//pragma solidity ^0.4.23;\n\n//import \"./RealEstateTrading.sol\";\nimport \"./RealEstateFactory.sol\";\ncontract RealEstateHelper is RealEstateFactory {\n\n  function changeType(uint _realEstateId, string calldata _newTypeEstate) external {\n    require(msg.sender == RealEstateFactory.realEstateToOwner[_realEstateId]);\n    RealEstateFactory.realEstates[_realEstateId].typeEstate = _newTypeEstate;\n  }\n\n  function changePrice(uint _realEstateId, uint _price) external {\n    require(msg.sender == RealEstateFactory.realEstateToOwner[_realEstateId]);\n    RealEstateFactory.realEstates[_realEstateId].price = _price;\n  }\n\n  function changeSurface(uint _realEstateId, uint _surface) external {\n    require(msg.sender == RealEstateFactory.realEstateToOwner[_realEstateId]);\n    RealEstateFactory.realEstates[_realEstateId].surface = _surface;\n  }\n\n  function getRealEstatesByOwner(address _owner) external view returns(uint[] memory) {\n    uint[] memory result = new uint[](ownerRealEstateCount[_owner]);\n    uint counter = 0;\n    for (uint i = 0; i < realEstates.length; i++) {\n      if (realEstateToOwner[i] == _owner) {\n        result[counter] = i;\n        counter++;\n      }\n    }\n    return result;\n  }\n\n}\n",
  "sourcePath": "/Users/dmytrolutsyk/Desktop/ESGI/smartcontract/contracts/RealEstateHelper.sol",
  "compiler": {
    "name": "solc",
    "version": "0.8.13+commit.abaa5c0e.Emscripten.clang"
  },
  "schemaVersion": "3.4.7",
  "updatedAt": "2022-04-15T10:02:58.018Z",
  "devdoc": {
    "kind": "dev",
    "methods": {},
    "version": 1
  },
  "userdoc": {
    "kind": "user",
    "methods": {},
    "version": 1
  }
}