{
  "contractName": "RealEstateFactory",
  "abi": [
    {
      "anonymous": false,
      "inputs": [
        {
          "indexed": false,
          "internalType": "string",
          "name": "typeEstate",
          "type": "string"
        },
        {
          "indexed": false,
          "internalType": "string",
          "name": "adress",
          "type": "string"
        },
        {
          "indexed": false,
          "internalType": "string",
          "name": "description",
          "type": "string"
        },
        {
          "indexed": false,
          "internalType": "uint256",
          "name": "realEstateId",
          "type": "uint256"
        },
        {
          "indexed": false,
          "internalType": "uint256",
          "name": "surface",
          "type": "uint256"
        },
        {
          "indexed": false,
          "internalType": "uint256",
          "name": "price",
          "type": "uint256"
        },
        {
          "indexed": false,
          "internalType": "address",
          "name": "vendorAdress",
          "type": "address"
        },
        {
          "indexed": false,
          "internalType": "uint256",
          "name": "date",
          "type": "uint256"
        }
      ],
      "name": "NewRealEstate",
      "type": "event"
    },
    {
      "anonymous": false,
      "inputs": [
        {
          "indexed": false,
          "internalType": "string",
          "name": "typeEstate",
          "type": "string"
        },
        {
          "indexed": false,
          "internalType": "string",
          "name": "adress",
          "type": "string"
        },
        {
          "indexed": false,
          "internalType": "string",
          "name": "description",
          "type": "string"
        },
        {
          "indexed": false,
          "internalType": "uint256",
          "name": "realEstateId",
          "type": "uint256"
        },
        {
          "indexed": false,
          "internalType": "uint256",
          "name": "surface",
          "type": "uint256"
        },
        {
          "indexed": false,
          "internalType": "uint256",
          "name": "price",
          "type": "uint256"
        },
        {
          "indexed": false,
          "internalType": "address",
          "name": "vendorAdress",
          "type": "address"
        },
        {
          "indexed": false,
          "internalType": "uint256",
          "name": "date",
          "type": "uint256"
        }
      ],
      "name": "SellRealEstate",
      "type": "event"
    },
    {
      "inputs": [
        {
          "internalType": "uint256",
          "name": "",
          "type": "uint256"
        }
      ],
      "name": "realEstateToOwner",
      "outputs": [
        {
          "internalType": "address",
          "name": "",
          "type": "address"
        }
      ],
      "stateMutability": "view",
      "type": "function"
    },
    {
      "inputs": [
        {
          "internalType": "uint256",
          "name": "",
          "type": "uint256"
        }
      ],
      "name": "realEstates",
      "outputs": [
        {
          "internalType": "string",
          "name": "typeEstate",
          "type": "string"
        },
        {
          "internalType": "string",
          "name": "adress",
          "type": "string"
        },
        {
          "internalType": "string",
          "name": "description",
          "type": "string"
        },
        {
          "internalType": "uint256",
          "name": "realEstateId",
          "type": "uint256"
        },
        {
          "internalType": "uint256",
          "name": "surface",
          "type": "uint256"
        },
        {
          "internalType": "uint256",
          "name": "price",
          "type": "uint256"
        },
        {
          "internalType": "address",
          "name": "vendorAdress",
          "type": "address"
        },
        {
          "internalType": "uint256",
          "name": "date",
          "type": "uint256"
        }
      ],
      "stateMutability": "view",
      "type": "function"
    },
    {
      "inputs": [
        {
          "internalType": "string",
          "name": "typeEstate",
          "type": "string"
        },
        {
          "internalType": "string",
          "name": "adress",
          "type": "string"
        },
        {
          "internalType": "string",
          "name": "description",
          "type": "string"
        },
        {
          "internalType": "uint256",
          "name": "realEstateId",
          "type": "uint256"
        },
        {
          "internalType": "uint256",
          "name": "surface",
          "type": "uint256"
        },
        {
          "internalType": "uint256",
          "name": "price",
          "type": "uint256"
        },
        {
          "internalType": "uint256",
          "name": "date",
          "type": "uint256"
        }
      ],
      "name": "createRealEstate",
      "outputs": [
        {
          "components": [
            {
              "internalType": "string",
              "name": "typeEstate",
              "type": "string"
            },
            {
              "internalType": "string",
              "name": "adress",
              "type": "string"
            },
            {
              "internalType": "string",
              "name": "description",
              "type": "string"
            },
            {
              "internalType": "uint256",
              "name": "realEstateId",
              "type": "uint256"
            },
            {
              "internalType": "uint256",
              "name": "surface",
              "type": "uint256"
            },
            {
              "internalType": "uint256",
              "name": "price",
              "type": "uint256"
            },
            {
              "internalType": "address",
              "name": "vendorAdress",
              "type": "address"
            },
            {
              "internalType": "uint256",
              "name": "date",
              "type": "uint256"
            }
          ],
          "internalType": "struct RealEstateFactory.RealEstate",
          "name": "",
          "type": "tuple"
        }
      ],
      "stateMutability": "nonpayable",
      "type": "function"
    },
    {
      "inputs": [
        {
          "internalType": "uint256",
          "name": "realEstateId",
          "type": "uint256"
        }
      ],
      "name": "buyRealEstate",
      "outputs": [],
      "stateMutability": "nonpayable",
      "type": "function"
    }
  ],
  "bytecode": "0x608060405234801561001057600080fd5b506112d2806100206000396000f3fe608060405234801561001057600080fd5b506004361061004c5760003560e01c8063867e0f771461005157806388f690021461006d578063993959451461009d5780639e9b30b4146100d4575b600080fd5b61006b60048036038101906100669190610bf0565b610104565b005b61008760048036038101906100829190610bf0565b6102dd565b6040516100949190610c5e565b60405180910390f35b6100b760048036038101906100b29190610bf0565b610310565b6040516100cb989796959493929190610d21565b60405180910390f35b6100ee60048036038101906100e99190610e19565b610520565b6040516100fb9190611042565b60405180910390f35b600080828154811061011957610118611064565b5b9060005260206000209060080201905060006001600084815260200190815260200160002060009054906101000a900473ffffffffffffffffffffffffffffffffffffffff169050808260060160006101000a81548173ffffffffffffffffffffffffffffffffffffffff021916908373ffffffffffffffffffffffffffffffffffffffff1602179055503373ffffffffffffffffffffffffffffffffffffffff168173ffffffffffffffffffffffffffffffffffffffff16036101dc57600080fd5b336001600085815260200190815260200160002060006101000a81548173ffffffffffffffffffffffffffffffffffffffff021916908373ffffffffffffffffffffffffffffffffffffffff160217905550600260003373ffffffffffffffffffffffffffffffffffffffff1673ffffffffffffffffffffffffffffffffffffffff168152602001908152602001600020600081548092919061027e906110c2565b9190505550600260008273ffffffffffffffffffffffffffffffffffffffff1673ffffffffffffffffffffffffffffffffffffffff16815260200190815260200160002060008154809291906102d39061110a565b9190505550505050565b60016020528060005260406000206000915054906101000a900473ffffffffffffffffffffffffffffffffffffffff1681565b6000818154811061032057600080fd5b906000526020600020906008020160009150905080600001805461034390611162565b80601f016020809104026020016040519081016040528092919081815260200182805461036f90611162565b80156103bc5780601f10610391576101008083540402835291602001916103bc565b820191906000526020600020905b81548152906001019060200180831161039f57829003601f168201915b5050505050908060010180546103d190611162565b80601f01602080910402602001604051908101604052809291908181526020018280546103fd90611162565b801561044a5780601f1061041f5761010080835404028352916020019161044a565b820191906000526020600020905b81548152906001019060200180831161042d57829003601f168201915b50505050509080600201805461045f90611162565b80601f016020809104026020016040519081016040528092919081815260200182805461048b90611162565b80156104d85780601f106104ad576101008083540402835291602001916104d8565b820191906000526020600020905b8154815290600101906020018083116104bb57829003601f168201915b5050505050908060030154908060040154908060050154908060060160009054906101000a900473ffffffffffffffffffffffffffffffffffffffff16908060070154905088565b610528610ab2565b60006040518061010001604052808d8d8080601f016020809104026020016040519081016040528093929190818152602001838380828437600081840152601f19601f8201169050808301925050505050505081526020018b8b8080601f016020809104026020016040519081016040528093929190818152602001838380828437600081840152601f19601f82011690508083019250505050505050815260200189898080601f016020809104026020016040519081016040528093929190818152602001838380828437600081840152601f19601f8201169050808301925050505050505081526020018781526020018681526020018581526020013373ffffffffffffffffffffffffffffffffffffffff168152602001848152509080600181540180825580915050600190039060005260206000209060080201600090919091909150600082015181600001908051906020019061068b929190610b0d565b5060208201518160010190805190602001906106a8929190610b0d565b5060408201518160020190805190602001906106c5929190610b0d565b50606082015181600301556080820151816004015560a0820151816005015560c08201518160060160006101000a81548173ffffffffffffffffffffffffffffffffffffffff021916908373ffffffffffffffffffffffffffffffffffffffff16021790555060e0820151816007015550506000600160008054905061074b9190611193565b9050336001600083815260200190815260200160002060006101000a81548173ffffffffffffffffffffffffffffffffffffffff021916908373ffffffffffffffffffffffffffffffffffffffff160217905550600260003373ffffffffffffffffffffffffffffffffffffffff1673ffffffffffffffffffffffffffffffffffffffff16815260200190815260200160002060008154809291906107ef906110c2565b91905055507f9fd8b7e261343663b92307f9832e0f507e2eb2047152780b9412f17ba5b7d7828c8c8c8c8c8c8c8c8c338d6040516108379b9a99989796959493929190611203565b60405180910390a16000818154811061085357610852611064565b5b90600052602060002090600802016040518061010001604052908160008201805461087d90611162565b80601f01602080910402602001604051908101604052809291908181526020018280546108a990611162565b80156108f65780601f106108cb576101008083540402835291602001916108f6565b820191906000526020600020905b8154815290600101906020018083116108d957829003601f168201915b5050505050815260200160018201805461090f90611162565b80601f016020809104026020016040519081016040528092919081815260200182805461093b90611162565b80156109885780601f1061095d57610100808354040283529160200191610988565b820191906000526020600020905b81548152906001019060200180831161096b57829003601f168201915b505050505081526020016002820180546109a190611162565b80601f01602080910402602001604051908101604052809291908181526020018280546109cd90611162565b8015610a1a5780601f106109ef57610100808354040283529160200191610a1a565b820191906000526020600020905b8154815290600101906020018083116109fd57829003601f168201915b505050505081526020016003820154815260200160048201548152602001600582015481526020016006820160009054906101000a900473ffffffffffffffffffffffffffffffffffffffff1673ffffffffffffffffffffffffffffffffffffffff1673ffffffffffffffffffffffffffffffffffffffff1681526020016007820154815250509150509a9950505050505050505050565b604051806101000160405280606081526020016060815260200160608152602001600081526020016000815260200160008152602001600073ffffffffffffffffffffffffffffffffffffffff168152602001600081525090565b828054610b1990611162565b90600052602060002090601f016020900481019282610b3b5760008555610b82565b82601f10610b5457805160ff1916838001178555610b82565b82800160010185558215610b82579182015b82811115610b81578251825591602001919060010190610b66565b5b509050610b8f9190610b93565b5090565b5b80821115610bac576000816000905550600101610b94565b5090565b600080fd5b600080fd5b6000819050919050565b610bcd81610bba565b8114610bd857600080fd5b50565b600081359050610bea81610bc4565b92915050565b600060208284031215610c0657610c05610bb0565b5b6000610c1484828501610bdb565b91505092915050565b600073ffffffffffffffffffffffffffffffffffffffff82169050919050565b6000610c4882610c1d565b9050919050565b610c5881610c3d565b82525050565b6000602082019050610c736000830184610c4f565b92915050565b600081519050919050565b600082825260208201905092915050565b60005b83811015610cb3578082015181840152602081019050610c98565b83811115610cc2576000848401525b50505050565b6000601f19601f8301169050919050565b6000610ce482610c79565b610cee8185610c84565b9350610cfe818560208601610c95565b610d0781610cc8565b840191505092915050565b610d1b81610bba565b82525050565b6000610100820190508181036000830152610d3c818b610cd9565b90508181036020830152610d50818a610cd9565b90508181036040830152610d648189610cd9565b9050610d736060830188610d12565b610d806080830187610d12565b610d8d60a0830186610d12565b610d9a60c0830185610c4f565b610da760e0830184610d12565b9998505050505050505050565b600080fd5b600080fd5b600080fd5b60008083601f840112610dd957610dd8610db4565b5b8235905067ffffffffffffffff811115610df657610df5610db9565b5b602083019150836001820283011115610e1257610e11610dbe565b5b9250929050565b60008060008060008060008060008060e08b8d031215610e3c57610e3b610bb0565b5b60008b013567ffffffffffffffff811115610e5a57610e59610bb5565b5b610e668d828e01610dc3565b9a509a505060208b013567ffffffffffffffff811115610e8957610e88610bb5565b5b610e958d828e01610dc3565b985098505060408b013567ffffffffffffffff811115610eb857610eb7610bb5565b5b610ec48d828e01610dc3565b96509650506060610ed78d828e01610bdb565b9450506080610ee88d828e01610bdb565b93505060a0610ef98d828e01610bdb565b92505060c0610f0a8d828e01610bdb565b9150509295989b9194979a5092959850565b600082825260208201905092915050565b6000610f3882610c79565b610f428185610f1c565b9350610f52818560208601610c95565b610f5b81610cc8565b840191505092915050565b610f6f81610bba565b82525050565b610f7e81610c3d565b82525050565b6000610100830160008301518482036000860152610fa28282610f2d565b91505060208301518482036020860152610fbc8282610f2d565b91505060408301518482036040860152610fd68282610f2d565b9150506060830151610feb6060860182610f66565b506080830151610ffe6080860182610f66565b5060a083015161101160a0860182610f66565b5060c083015161102460c0860182610f75565b5060e083015161103760e0860182610f66565b508091505092915050565b6000602082019050818103600083015261105c8184610f84565b905092915050565b7f4e487b7100000000000000000000000000000000000000000000000000000000600052603260045260246000fd5b7f4e487b7100000000000000000000000000000000000000000000000000000000600052601160045260246000fd5b60006110cd82610bba565b91507fffffffffffffffffffffffffffffffffffffffffffffffffffffffffffffffff82036110ff576110fe611093565b5b600182019050919050565b600061111582610bba565b91506000820361112857611127611093565b5b600182039050919050565b7f4e487b7100000000000000000000000000000000000000000000000000000000600052602260045260246000fd5b6000600282049050600182168061117a57607f821691505b60208210810361118d5761118c611133565b5b50919050565b600061119e82610bba565b91506111a983610bba565b9250828210156111bc576111bb611093565b5b828203905092915050565b82818337600083830152505050565b60006111e28385610c84565b93506111ef8385846111c7565b6111f883610cc8565b840190509392505050565b600061010082019050818103600083015261121f818d8f6111d6565b90508181036020830152611234818b8d6111d6565b9050818103604083015261124981898b6111d6565b90506112586060830188610d12565b6112656080830187610d12565b61127260a0830186610d12565b61127f60c0830185610c4f565b61128c60e0830184610d12565b9c9b50505050505050505050505056fea26469706673582212207520388904d5a7ec24c3ca9b57bcdee944a58cda11b54df851de347d1ee7de7364736f6c634300080d0033",
  "immutableReferences": {},
  "source": "pragma solidity >=0.4.22 <0.9.0;\n//pragma solidity ^0.4.23;\npragma experimental ABIEncoderV2;\n\n//import \"./ownable.sol\";\n\ncontract RealEstateFactory {\n\n    event NewRealEstate(string typeEstate, string adress, string description, uint realEstateId, uint surface, uint price, address vendorAdress, uint date);\n    event SellRealEstate(string typeEstate, string adress, string description, uint realEstateId, uint surface, uint price, address vendorAdress, uint date);\n\n\n    struct RealEstate {\n      string typeEstate;\n      string adress;\n      string description;\n      uint realEstateId;\n      uint surface;\n      uint price;\n      address vendorAdress;\n      uint date;\n    }\n\n    RealEstate[] public realEstates;\n\n    mapping (uint => address) public realEstateToOwner;\n    mapping (address => uint) ownerRealEstateCount;\n\n    function createRealEstate(string calldata typeEstate, string calldata adress, string calldata description, uint realEstateId, uint surface, uint price, uint date) external returns (RealEstate memory){\n        realEstates.push(RealEstate(typeEstate, adress, description, realEstateId, surface, price, msg.sender, date));\n        uint id = realEstates.length - 1;\n        realEstateToOwner[id] = msg.sender;\n        ownerRealEstateCount[msg.sender]++;\n        emit NewRealEstate(typeEstate, adress, description, realEstateId, surface, price, msg.sender, date);\n        return realEstates[id];\n    }\n\n    function buyRealEstate(uint realEstateId) external {\n      RealEstate storage estateToSell = realEstates[realEstateId];\n      address oldOwner = realEstateToOwner[realEstateId];\n      estateToSell.vendorAdress = oldOwner;\n\n      require(oldOwner != msg.sender);\n      realEstateToOwner[realEstateId] = msg.sender;\n      ownerRealEstateCount[msg.sender]++;\n      ownerRealEstateCount[oldOwner]--;\n    }\n\n}\n",
  "sourcePath": "/Users/dmytrolutsyk/Desktop/ESGI/smartcontract/contracts/RealEstateFactory.sol",
  "compiler": {
    "name": "solc",
    "version": "0.8.13+commit.abaa5c0e.Emscripten.clang"
  },
  "schemaVersion": "3.4.7",
  "updatedAt": "2022-04-15T11:10:07.216Z",
  "devdoc": {
    "kind": "dev",
    "methods": {},
    "version": 1
  },
  "userdoc": {
    "kind": "user",
    "methods": {},
    "version": 1
  }
}