{
  "contractName": "RealEstateFactory",
  "abi": [
    {
      "anonymous": false,
      "inputs": [
        {
          "indexed": false,
          "internalType": "string",
          "name": "typeEstate",
          "type": "string"
        },
        {
          "indexed": false,
          "internalType": "string",
          "name": "adress",
          "type": "string"
        },
        {
          "indexed": false,
          "internalType": "string",
          "name": "description",
          "type": "string"
        },
        {
          "indexed": false,
          "internalType": "uint256",
          "name": "realEstateId",
          "type": "uint256"
        },
        {
          "indexed": false,
          "internalType": "uint256",
          "name": "surface",
          "type": "uint256"
        },
        {
          "indexed": false,
          "internalType": "uint256",
          "name": "price",
          "type": "uint256"
        },
        {
          "indexed": false,
          "internalType": "address",
          "name": "vendorAdress",
          "type": "address"
        },
        {
          "indexed": false,
          "internalType": "uint256",
          "name": "date",
          "type": "uint256"
        }
      ],
      "name": "NewRealEstate",
      "type": "event"
    },
    {
      "anonymous": false,
      "inputs": [
        {
          "indexed": false,
          "internalType": "string",
          "name": "typeEstate",
          "type": "string"
        },
        {
          "indexed": false,
          "internalType": "string",
          "name": "adress",
          "type": "string"
        },
        {
          "indexed": false,
          "internalType": "string",
          "name": "description",
          "type": "string"
        },
        {
          "indexed": false,
          "internalType": "uint256",
          "name": "realEstateId",
          "type": "uint256"
        },
        {
          "indexed": false,
          "internalType": "uint256",
          "name": "surface",
          "type": "uint256"
        },
        {
          "indexed": false,
          "internalType": "uint256",
          "name": "price",
          "type": "uint256"
        },
        {
          "indexed": false,
          "internalType": "address",
          "name": "vendorAdress",
          "type": "address"
        },
        {
          "indexed": false,
          "internalType": "uint256",
          "name": "date",
          "type": "uint256"
        }
      ],
      "name": "SellRealEstate",
      "type": "event"
    },
    {
      "inputs": [
        {
          "internalType": "uint256",
          "name": "",
          "type": "uint256"
        }
      ],
      "name": "realEstateToOwner",
      "outputs": [
        {
          "internalType": "address",
          "name": "",
          "type": "address"
        }
      ],
      "stateMutability": "view",
      "type": "function"
    },
    {
      "inputs": [
        {
          "internalType": "uint256",
          "name": "",
          "type": "uint256"
        }
      ],
      "name": "realEstates",
      "outputs": [
        {
          "internalType": "string",
          "name": "typeEstate",
          "type": "string"
        },
        {
          "internalType": "string",
          "name": "adress",
          "type": "string"
        },
        {
          "internalType": "string",
          "name": "description",
          "type": "string"
        },
        {
          "internalType": "uint256",
          "name": "realEstateId",
          "type": "uint256"
        },
        {
          "internalType": "uint256",
          "name": "surface",
          "type": "uint256"
        },
        {
          "internalType": "uint256",
          "name": "price",
          "type": "uint256"
        },
        {
          "internalType": "address",
          "name": "vendorAdress",
          "type": "address"
        },
        {
          "internalType": "uint256",
          "name": "date",
          "type": "uint256"
        }
      ],
      "stateMutability": "view",
      "type": "function"
    },
    {
      "inputs": [
        {
          "internalType": "string",
          "name": "typeEstate",
          "type": "string"
        },
        {
          "internalType": "string",
          "name": "adress",
          "type": "string"
        },
        {
          "internalType": "string",
          "name": "description",
          "type": "string"
        },
        {
          "internalType": "uint256",
          "name": "realEstateId",
          "type": "uint256"
        },
        {
          "internalType": "uint256",
          "name": "surface",
          "type": "uint256"
        },
        {
          "internalType": "uint256",
          "name": "price",
          "type": "uint256"
        },
        {
          "internalType": "address",
          "name": "vendorAdress",
          "type": "address"
        },
        {
          "internalType": "uint256",
          "name": "date",
          "type": "uint256"
        }
      ],
      "name": "createRealEstate",
      "outputs": [
        {
          "components": [
            {
              "internalType": "string",
              "name": "typeEstate",
              "type": "string"
            },
            {
              "internalType": "string",
              "name": "adress",
              "type": "string"
            },
            {
              "internalType": "string",
              "name": "description",
              "type": "string"
            },
            {
              "internalType": "uint256",
              "name": "realEstateId",
              "type": "uint256"
            },
            {
              "internalType": "uint256",
              "name": "surface",
              "type": "uint256"
            },
            {
              "internalType": "uint256",
              "name": "price",
              "type": "uint256"
            },
            {
              "internalType": "address",
              "name": "vendorAdress",
              "type": "address"
            },
            {
              "internalType": "uint256",
              "name": "date",
              "type": "uint256"
            }
          ],
          "internalType": "struct RealEstateFactory.RealEstate",
          "name": "",
          "type": "tuple"
        }
      ],
      "stateMutability": "nonpayable",
      "type": "function"
    },
    {
      "inputs": [
        {
          "internalType": "uint256",
          "name": "realEstateId",
          "type": "uint256"
        }
      ],
      "name": "buyRealEstate",
      "outputs": [],
      "stateMutability": "nonpayable",
      "type": "function"
    }
  ],
  "bytecode": "0x608060405234801561001057600080fd5b50611314806100206000396000f3fe608060405234801561001057600080fd5b506004361061004c5760003560e01c8063867e0f771461005157806388f690021461006d578063993959451461009d578063c0ac4720146100d4575b600080fd5b61006b60048036038101906100669190610bf1565b610104565b005b61008760048036038101906100829190610bf1565b6102dd565b6040516100949190610c5f565b60405180910390f35b6100b760048036038101906100b29190610bf1565b610310565b6040516100cb989796959493929190610d22565b60405180910390f35b6100ee60048036038101906100e99190610e46565b610520565b6040516100fb9190611084565b60405180910390f35b6000808281548110610119576101186110a6565b5b9060005260206000209060080201905060006001600084815260200190815260200160002060009054906101000a900473ffffffffffffffffffffffffffffffffffffffff169050808260060160006101000a81548173ffffffffffffffffffffffffffffffffffffffff021916908373ffffffffffffffffffffffffffffffffffffffff1602179055503373ffffffffffffffffffffffffffffffffffffffff168173ffffffffffffffffffffffffffffffffffffffff16036101dc57600080fd5b336001600085815260200190815260200160002060006101000a81548173ffffffffffffffffffffffffffffffffffffffff021916908373ffffffffffffffffffffffffffffffffffffffff160217905550600260003373ffffffffffffffffffffffffffffffffffffffff1673ffffffffffffffffffffffffffffffffffffffff168152602001908152602001600020600081548092919061027e90611104565b9190505550600260008273ffffffffffffffffffffffffffffffffffffffff1673ffffffffffffffffffffffffffffffffffffffff16815260200190815260200160002060008154809291906102d39061114c565b9190505550505050565b60016020528060005260406000206000915054906101000a900473ffffffffffffffffffffffffffffffffffffffff1681565b6000818154811061032057600080fd5b9060005260206000209060080201600091509050806000018054610343906111a4565b80601f016020809104026020016040519081016040528092919081815260200182805461036f906111a4565b80156103bc5780601f10610391576101008083540402835291602001916103bc565b820191906000526020600020905b81548152906001019060200180831161039f57829003601f168201915b5050505050908060010180546103d1906111a4565b80601f01602080910402602001604051908101604052809291908181526020018280546103fd906111a4565b801561044a5780601f1061041f5761010080835404028352916020019161044a565b820191906000526020600020905b81548152906001019060200180831161042d57829003601f168201915b50505050509080600201805461045f906111a4565b80601f016020809104026020016040519081016040528092919081815260200182805461048b906111a4565b80156104d85780601f106104ad576101008083540402835291602001916104d8565b820191906000526020600020905b8154815290600101906020018083116104bb57829003601f168201915b5050505050908060030154908060040154908060050154908060060160009054906101000a900473ffffffffffffffffffffffffffffffffffffffff16908060070154905088565b610528610ab3565b60006040518061010001604052808e8e8080601f016020809104026020016040519081016040528093929190818152602001838380828437600081840152601f19601f8201169050808301925050505050505081526020018c8c8080601f016020809104026020016040519081016040528093929190818152602001838380828437600081840152601f19601f8201169050808301925050505050505081526020018a8a8080601f016020809104026020016040519081016040528093929190818152602001838380828437600081840152601f19601f8201169050808301925050505050505081526020018881526020018781526020018681526020018573ffffffffffffffffffffffffffffffffffffffff168152602001848152509080600181540180825580915050600190039060005260206000209060080201600090919091909150600082015181600001908051906020019061068b929190610b0e565b5060208201518160010190805190602001906106a8929190610b0e565b5060408201518160020190805190602001906106c5929190610b0e565b50606082015181600301556080820151816004015560a0820151816005015560c08201518160060160006101000a81548173ffffffffffffffffffffffffffffffffffffffff021916908373ffffffffffffffffffffffffffffffffffffffff16021790555060e0820151816007015550506000600160008054905061074b91906111d5565b9050336001600083815260200190815260200160002060006101000a81548173ffffffffffffffffffffffffffffffffffffffff021916908373ffffffffffffffffffffffffffffffffffffffff160217905550600260003373ffffffffffffffffffffffffffffffffffffffff1673ffffffffffffffffffffffffffffffffffffffff16815260200190815260200160002060008154809291906107ef90611104565b91905055507f9fd8b7e261343663b92307f9832e0f507e2eb2047152780b9412f17ba5b7d7828d8d8d8d8d8d8d8d8d8d8d6040516108379b9a99989796959493929190611245565b60405180910390a160008181548110610853576108526110a6565b5b90600052602060002090600802016040518061010001604052908160008201805461087d906111a4565b80601f01602080910402602001604051908101604052809291908181526020018280546108a9906111a4565b80156108f65780601f106108cb576101008083540402835291602001916108f6565b820191906000526020600020905b8154815290600101906020018083116108d957829003601f168201915b5050505050815260200160018201805461090f906111a4565b80601f016020809104026020016040519081016040528092919081815260200182805461093b906111a4565b80156109885780601f1061095d57610100808354040283529160200191610988565b820191906000526020600020905b81548152906001019060200180831161096b57829003601f168201915b505050505081526020016002820180546109a1906111a4565b80601f01602080910402602001604051908101604052809291908181526020018280546109cd906111a4565b8015610a1a5780601f106109ef57610100808354040283529160200191610a1a565b820191906000526020600020905b8154815290600101906020018083116109fd57829003601f168201915b505050505081526020016003820154815260200160048201548152602001600582015481526020016006820160009054906101000a900473ffffffffffffffffffffffffffffffffffffffff1673ffffffffffffffffffffffffffffffffffffffff1673ffffffffffffffffffffffffffffffffffffffff1681526020016007820154815250509150509b9a5050505050505050505050565b604051806101000160405280606081526020016060815260200160608152602001600081526020016000815260200160008152602001600073ffffffffffffffffffffffffffffffffffffffff168152602001600081525090565b828054610b1a906111a4565b90600052602060002090601f016020900481019282610b3c5760008555610b83565b82601f10610b5557805160ff1916838001178555610b83565b82800160010185558215610b83579182015b82811115610b82578251825591602001919060010190610b67565b5b509050610b909190610b94565b5090565b5b80821115610bad576000816000905550600101610b95565b5090565b600080fd5b600080fd5b6000819050919050565b610bce81610bbb565b8114610bd957600080fd5b50565b600081359050610beb81610bc5565b92915050565b600060208284031215610c0757610c06610bb1565b5b6000610c1584828501610bdc565b91505092915050565b600073ffffffffffffffffffffffffffffffffffffffff82169050919050565b6000610c4982610c1e565b9050919050565b610c5981610c3e565b82525050565b6000602082019050610c746000830184610c50565b92915050565b600081519050919050565b600082825260208201905092915050565b60005b83811015610cb4578082015181840152602081019050610c99565b83811115610cc3576000848401525b50505050565b6000601f19601f8301169050919050565b6000610ce582610c7a565b610cef8185610c85565b9350610cff818560208601610c96565b610d0881610cc9565b840191505092915050565b610d1c81610bbb565b82525050565b6000610100820190508181036000830152610d3d818b610cda565b90508181036020830152610d51818a610cda565b90508181036040830152610d658189610cda565b9050610d746060830188610d13565b610d816080830187610d13565b610d8e60a0830186610d13565b610d9b60c0830185610c50565b610da860e0830184610d13565b9998505050505050505050565b600080fd5b600080fd5b600080fd5b60008083601f840112610dda57610dd9610db5565b5b8235905067ffffffffffffffff811115610df757610df6610dba565b5b602083019150836001820283011115610e1357610e12610dbf565b5b9250929050565b610e2381610c3e565b8114610e2e57600080fd5b50565b600081359050610e4081610e1a565b92915050565b60008060008060008060008060008060006101008c8e031215610e6c57610e6b610bb1565b5b60008c013567ffffffffffffffff811115610e8a57610e89610bb6565b5b610e968e828f01610dc4565b9b509b505060208c013567ffffffffffffffff811115610eb957610eb8610bb6565b5b610ec58e828f01610dc4565b995099505060408c013567ffffffffffffffff811115610ee857610ee7610bb6565b5b610ef48e828f01610dc4565b97509750506060610f078e828f01610bdc565b9550506080610f188e828f01610bdc565b94505060a0610f298e828f01610bdc565b93505060c0610f3a8e828f01610e31565b92505060e0610f4b8e828f01610bdc565b9150509295989b509295989b9093969950565b600082825260208201905092915050565b6000610f7a82610c7a565b610f848185610f5e565b9350610f94818560208601610c96565b610f9d81610cc9565b840191505092915050565b610fb181610bbb565b82525050565b610fc081610c3e565b82525050565b6000610100830160008301518482036000860152610fe48282610f6f565b91505060208301518482036020860152610ffe8282610f6f565b915050604083015184820360408601526110188282610f6f565b915050606083015161102d6060860182610fa8565b5060808301516110406080860182610fa8565b5060a083015161105360a0860182610fa8565b5060c083015161106660c0860182610fb7565b5060e083015161107960e0860182610fa8565b508091505092915050565b6000602082019050818103600083015261109e8184610fc6565b905092915050565b7f4e487b7100000000000000000000000000000000000000000000000000000000600052603260045260246000fd5b7f4e487b7100000000000000000000000000000000000000000000000000000000600052601160045260246000fd5b600061110f82610bbb565b91507fffffffffffffffffffffffffffffffffffffffffffffffffffffffffffffffff8203611141576111406110d5565b5b600182019050919050565b600061115782610bbb565b91506000820361116a576111696110d5565b5b600182039050919050565b7f4e487b7100000000000000000000000000000000000000000000000000000000600052602260045260246000fd5b600060028204905060018216806111bc57607f821691505b6020821081036111cf576111ce611175565b5b50919050565b60006111e082610bbb565b91506111eb83610bbb565b9250828210156111fe576111fd6110d5565b5b828203905092915050565b82818337600083830152505050565b60006112248385610c85565b9350611231838584611209565b61123a83610cc9565b840190509392505050565b6000610100820190508181036000830152611261818d8f611218565b90508181036020830152611276818b8d611218565b9050818103604083015261128b81898b611218565b905061129a6060830188610d13565b6112a76080830187610d13565b6112b460a0830186610d13565b6112c160c0830185610c50565b6112ce60e0830184610d13565b9c9b50505050505050505050505056fea264697066735822122017781a11f98077e9f7ffa079388c3ac9e12b755536ee4306e867d7bead350aa964736f6c634300080d0033",
  "immutableReferences": {},
  "source": "pragma solidity >=0.4.22 <0.9.0;\n//pragma solidity ^0.4.23;\npragma experimental ABIEncoderV2;\n\n//import \"./ownable.sol\";\n\ncontract RealEstateFactory {\n\n    event NewRealEstate(string typeEstate, string adress, string description, uint realEstateId, uint surface, uint price, address vendorAdress, uint date);\n    event SellRealEstate(string typeEstate, string adress, string description, uint realEstateId, uint surface, uint price, address vendorAdress, uint date);\n\n\n    struct RealEstate {\n      string typeEstate;\n      string adress;\n      string description;\n      uint realEstateId;\n      uint surface;\n      uint price;\n      address vendorAdress;\n      uint date;\n    }\n\n    RealEstate[] public realEstates;\n\n    mapping (uint => address) public realEstateToOwner;\n    mapping (address => uint) ownerRealEstateCount;\n\n    function createRealEstate(string calldata typeEstate, string calldata adress, string calldata description, uint realEstateId, uint surface, uint price, address vendorAdress, uint date) external returns (RealEstate memory){\n        realEstates.push(RealEstate(typeEstate, adress, description, realEstateId, surface, price, vendorAdress, date));\n        uint id = realEstates.length - 1;\n        realEstateToOwner[id] = msg.sender;\n        ownerRealEstateCount[msg.sender]++;\n        emit NewRealEstate(typeEstate, adress, description, realEstateId, surface, price, vendorAdress, date);\n        return realEstates[id];\n    }\n\n    function buyRealEstate(uint realEstateId) external {\n      RealEstate storage estateToSell = realEstates[realEstateId];\n      address oldOwner = realEstateToOwner[realEstateId];\n      estateToSell.vendorAdress = oldOwner;\n\n      require(oldOwner != msg.sender);\n      realEstateToOwner[realEstateId] = msg.sender;\n      ownerRealEstateCount[msg.sender]++;\n      ownerRealEstateCount[oldOwner]--;\n    }\n\n}\n",
  "sourcePath": "/Users/dmytrolutsyk/Desktop/ESGI/smartcontract/contracts/RealEstateFactory.sol",
  "compiler": {
    "name": "solc",
    "version": "0.8.13+commit.abaa5c0e.Emscripten.clang"
  },
  "schemaVersion": "3.4.7",
  "updatedAt": "2022-04-15T10:02:58.013Z",
  "devdoc": {
    "kind": "dev",
    "methods": {},
    "version": 1
  },
  "userdoc": {
    "kind": "user",
    "methods": {},
    "version": 1
  }
}