{
  "contractName": "RealEstateHelper",
  "abi": [
    {
      "anonymous": false,
      "inputs": [
        {
          "indexed": false,
          "internalType": "string",
          "name": "typeEstate",
          "type": "string"
        },
        {
          "indexed": false,
          "internalType": "string",
          "name": "adress",
          "type": "string"
        },
        {
          "indexed": false,
          "internalType": "string",
          "name": "description",
          "type": "string"
        },
        {
          "indexed": false,
          "internalType": "uint256",
          "name": "realEstateId",
          "type": "uint256"
        },
        {
          "indexed": false,
          "internalType": "uint256",
          "name": "surface",
          "type": "uint256"
        },
        {
          "indexed": false,
          "internalType": "uint256",
          "name": "price",
          "type": "uint256"
        },
        {
          "indexed": false,
          "internalType": "address",
          "name": "vendorAdress",
          "type": "address"
        },
        {
          "indexed": false,
          "internalType": "uint256",
          "name": "date",
          "type": "uint256"
        }
      ],
      "name": "NewRealEstate",
      "type": "event"
    },
    {
      "anonymous": false,
      "inputs": [
        {
          "indexed": false,
          "internalType": "string",
          "name": "typeEstate",
          "type": "string"
        },
        {
          "indexed": false,
          "internalType": "string",
          "name": "adress",
          "type": "string"
        },
        {
          "indexed": false,
          "internalType": "string",
          "name": "description",
          "type": "string"
        },
        {
          "indexed": false,
          "internalType": "uint256",
          "name": "realEstateId",
          "type": "uint256"
        },
        {
          "indexed": false,
          "internalType": "uint256",
          "name": "surface",
          "type": "uint256"
        },
        {
          "indexed": false,
          "internalType": "uint256",
          "name": "price",
          "type": "uint256"
        },
        {
          "indexed": false,
          "internalType": "address",
          "name": "vendorAdress",
          "type": "address"
        },
        {
          "indexed": false,
          "internalType": "uint256",
          "name": "date",
          "type": "uint256"
        }
      ],
      "name": "SellRealEstate",
      "type": "event"
    },
    {
      "inputs": [
        {
          "internalType": "uint256",
          "name": "realEstateId",
          "type": "uint256"
        }
      ],
      "name": "buyRealEstate",
      "outputs": [],
      "stateMutability": "nonpayable",
      "type": "function"
    },
    {
      "inputs": [
        {
          "internalType": "string",
          "name": "typeEstate",
          "type": "string"
        },
        {
          "internalType": "string",
          "name": "adress",
          "type": "string"
        },
        {
          "internalType": "string",
          "name": "description",
          "type": "string"
        },
        {
          "internalType": "uint256",
          "name": "realEstateId",
          "type": "uint256"
        },
        {
          "internalType": "uint256",
          "name": "surface",
          "type": "uint256"
        },
        {
          "internalType": "uint256",
          "name": "price",
          "type": "uint256"
        },
        {
          "internalType": "uint256",
          "name": "date",
          "type": "uint256"
        }
      ],
      "name": "createRealEstate",
      "outputs": [
        {
          "components": [
            {
              "internalType": "string",
              "name": "typeEstate",
              "type": "string"
            },
            {
              "internalType": "string",
              "name": "adress",
              "type": "string"
            },
            {
              "internalType": "string",
              "name": "description",
              "type": "string"
            },
            {
              "internalType": "uint256",
              "name": "realEstateId",
              "type": "uint256"
            },
            {
              "internalType": "uint256",
              "name": "surface",
              "type": "uint256"
            },
            {
              "internalType": "uint256",
              "name": "price",
              "type": "uint256"
            },
            {
              "internalType": "address",
              "name": "vendorAdress",
              "type": "address"
            },
            {
              "internalType": "uint256",
              "name": "date",
              "type": "uint256"
            }
          ],
          "internalType": "struct RealEstateFactory.RealEstate",
          "name": "",
          "type": "tuple"
        }
      ],
      "stateMutability": "nonpayable",
      "type": "function"
    },
    {
      "inputs": [
        {
          "internalType": "uint256",
          "name": "",
          "type": "uint256"
        }
      ],
      "name": "realEstateToOwner",
      "outputs": [
        {
          "internalType": "address",
          "name": "",
          "type": "address"
        }
      ],
      "stateMutability": "view",
      "type": "function"
    },
    {
      "inputs": [
        {
          "internalType": "uint256",
          "name": "",
          "type": "uint256"
        }
      ],
      "name": "realEstates",
      "outputs": [
        {
          "internalType": "string",
          "name": "typeEstate",
          "type": "string"
        },
        {
          "internalType": "string",
          "name": "adress",
          "type": "string"
        },
        {
          "internalType": "string",
          "name": "description",
          "type": "string"
        },
        {
          "internalType": "uint256",
          "name": "realEstateId",
          "type": "uint256"
        },
        {
          "internalType": "uint256",
          "name": "surface",
          "type": "uint256"
        },
        {
          "internalType": "uint256",
          "name": "price",
          "type": "uint256"
        },
        {
          "internalType": "address",
          "name": "vendorAdress",
          "type": "address"
        },
        {
          "internalType": "uint256",
          "name": "date",
          "type": "uint256"
        }
      ],
      "stateMutability": "view",
      "type": "function"
    },
    {
      "inputs": [
        {
          "internalType": "uint256",
          "name": "_realEstateId",
          "type": "uint256"
        },
        {
          "internalType": "string",
          "name": "_newTypeEstate",
          "type": "string"
        }
      ],
      "name": "changeType",
      "outputs": [],
      "stateMutability": "nonpayable",
      "type": "function"
    },
    {
      "inputs": [
        {
          "internalType": "uint256",
          "name": "_realEstateId",
          "type": "uint256"
        },
        {
          "internalType": "uint256",
          "name": "_price",
          "type": "uint256"
        }
      ],
      "name": "changePrice",
      "outputs": [],
      "stateMutability": "nonpayable",
      "type": "function"
    },
    {
      "inputs": [
        {
          "internalType": "uint256",
          "name": "_realEstateId",
          "type": "uint256"
        },
        {
          "internalType": "uint256",
          "name": "_surface",
          "type": "uint256"
        }
      ],
      "name": "changeSurface",
      "outputs": [],
      "stateMutability": "nonpayable",
      "type": "function"
    },
    {
      "inputs": [
        {
          "internalType": "address",
          "name": "_owner",
          "type": "address"
        }
      ],
      "name": "getRealEstatesByOwner",
      "outputs": [
        {
          "internalType": "uint256[]",
          "name": "",
          "type": "uint256[]"
        }
      ],
      "stateMutability": "view",
      "type": "function"
    }
  ],
  "bytecode": "0x608060405234801561001057600080fd5b5061193a806100206000396000f3fe608060405234801561001057600080fd5b50600436106100885760003560e01c8063993959451161005b57806399395945146101255780639e9b30b41461015c578063a30b5f171461018c578063b3de019c146101a857610088565b80630f6cebd41461008d57806344c8c8a2146100bd578063867e0f77146100d957806388f69002146100f5575b600080fd5b6100a760048036038101906100a29190611087565b6101c4565b6040516100b4919061117c565b60405180910390f35b6100d760048036038101906100d2919061122f565b610316565b005b6100f360048036038101906100ee919061128f565b6103bb565b005b61010f600480360381019061010a919061128f565b610594565b60405161011c91906112cb565b60405180910390f35b61013f600480360381019061013a919061128f565b6105c7565b60405161015398979695949392919061138e565b60405180910390f35b61017660048036038101906101719190611421565b6107d7565b604051610183919061163b565b60405180910390f35b6101a660048036038101906101a1919061165d565b610d69565b005b6101c260048036038101906101bd919061165d565b610e02565b005b60606000600260008473ffffffffffffffffffffffffffffffffffffffff1673ffffffffffffffffffffffffffffffffffffffff1681526020019081526020016000205467ffffffffffffffff8111156102215761022061169d565b5b60405190808252806020026020018201604052801561024f5781602001602082028036833780820191505090505b5090506000805b60008054905081101561030b578473ffffffffffffffffffffffffffffffffffffffff166001600083815260200190815260200160002060009054906101000a900473ffffffffffffffffffffffffffffffffffffffff1673ffffffffffffffffffffffffffffffffffffffff16036102f857808383815181106102dd576102dc6116cc565b5b60200260200101818152505081806102f49061172a565b9250505b80806103039061172a565b915050610256565b508192505050919050565b6001600084815260200190815260200160002060009054906101000a900473ffffffffffffffffffffffffffffffffffffffff1673ffffffffffffffffffffffffffffffffffffffff163373ffffffffffffffffffffffffffffffffffffffff161461038157600080fd5b818160008581548110610397576103966116cc565b5b906000526020600020906008020160000191906103b5929190610e9b565b50505050565b60008082815481106103d0576103cf6116cc565b5b9060005260206000209060080201905060006001600084815260200190815260200160002060009054906101000a900473ffffffffffffffffffffffffffffffffffffffff169050808260060160006101000a81548173ffffffffffffffffffffffffffffffffffffffff021916908373ffffffffffffffffffffffffffffffffffffffff1602179055503373ffffffffffffffffffffffffffffffffffffffff168173ffffffffffffffffffffffffffffffffffffffff160361049357600080fd5b336001600085815260200190815260200160002060006101000a81548173ffffffffffffffffffffffffffffffffffffffff021916908373ffffffffffffffffffffffffffffffffffffffff160217905550600260003373ffffffffffffffffffffffffffffffffffffffff1673ffffffffffffffffffffffffffffffffffffffff16815260200190815260200160002060008154809291906105359061172a565b9190505550600260008273ffffffffffffffffffffffffffffffffffffffff1673ffffffffffffffffffffffffffffffffffffffff168152602001908152602001600020600081548092919061058a90611772565b9190505550505050565b60016020528060005260406000206000915054906101000a900473ffffffffffffffffffffffffffffffffffffffff1681565b600081815481106105d757600080fd5b90600052602060002090600802016000915090508060000180546105fa906117ca565b80601f0160208091040260200160405190810160405280929190818152602001828054610626906117ca565b80156106735780601f1061064857610100808354040283529160200191610673565b820191906000526020600020905b81548152906001019060200180831161065657829003601f168201915b505050505090806001018054610688906117ca565b80601f01602080910402602001604051908101604052809291908181526020018280546106b4906117ca565b80156107015780601f106106d657610100808354040283529160200191610701565b820191906000526020600020905b8154815290600101906020018083116106e457829003601f168201915b505050505090806002018054610716906117ca565b80601f0160208091040260200160405190810160405280929190818152602001828054610742906117ca565b801561078f5780601f106107645761010080835404028352916020019161078f565b820191906000526020600020905b81548152906001019060200180831161077257829003601f168201915b5050505050908060030154908060040154908060050154908060060160009054906101000a900473ffffffffffffffffffffffffffffffffffffffff16908060070154905088565b6107df610f21565b60006040518061010001604052808d8d8080601f016020809104026020016040519081016040528093929190818152602001838380828437600081840152601f19601f8201169050808301925050505050505081526020018b8b8080601f016020809104026020016040519081016040528093929190818152602001838380828437600081840152601f19601f82011690508083019250505050505050815260200189898080601f016020809104026020016040519081016040528093929190818152602001838380828437600081840152601f19601f8201169050808301925050505050505081526020018781526020018681526020018581526020013373ffffffffffffffffffffffffffffffffffffffff1681526020018481525090806001815401808255809150506001900390600052602060002090600802016000909190919091506000820151816000019080519060200190610942929190610f7c565b50602082015181600101908051906020019061095f929190610f7c565b50604082015181600201908051906020019061097c929190610f7c565b50606082015181600301556080820151816004015560a0820151816005015560c08201518160060160006101000a81548173ffffffffffffffffffffffffffffffffffffffff021916908373ffffffffffffffffffffffffffffffffffffffff16021790555060e08201518160070155505060006001600080549050610a0291906117fb565b9050336001600083815260200190815260200160002060006101000a81548173ffffffffffffffffffffffffffffffffffffffff021916908373ffffffffffffffffffffffffffffffffffffffff160217905550600260003373ffffffffffffffffffffffffffffffffffffffff1673ffffffffffffffffffffffffffffffffffffffff1681526020019081526020016000206000815480929190610aa69061172a565b91905055507f9fd8b7e261343663b92307f9832e0f507e2eb2047152780b9412f17ba5b7d7828c8c8c8c8c8c8c8c8c338d604051610aee9b9a9998979695949392919061186b565b60405180910390a160008181548110610b0a57610b096116cc565b5b906000526020600020906008020160405180610100016040529081600082018054610b34906117ca565b80601f0160208091040260200160405190810160405280929190818152602001828054610b60906117ca565b8015610bad5780601f10610b8257610100808354040283529160200191610bad565b820191906000526020600020905b815481529060010190602001808311610b9057829003601f168201915b50505050508152602001600182018054610bc6906117ca565b80601f0160208091040260200160405190810160405280929190818152602001828054610bf2906117ca565b8015610c3f5780601f10610c1457610100808354040283529160200191610c3f565b820191906000526020600020905b815481529060010190602001808311610c2257829003601f168201915b50505050508152602001600282018054610c58906117ca565b80601f0160208091040260200160405190810160405280929190818152602001828054610c84906117ca565b8015610cd15780601f10610ca657610100808354040283529160200191610cd1565b820191906000526020600020905b815481529060010190602001808311610cb457829003601f168201915b505050505081526020016003820154815260200160048201548152602001600582015481526020016006820160009054906101000a900473ffffffffffffffffffffffffffffffffffffffff1673ffffffffffffffffffffffffffffffffffffffff1673ffffffffffffffffffffffffffffffffffffffff1681526020016007820154815250509150509a9950505050505050505050565b6001600083815260200190815260200160002060009054906101000a900473ffffffffffffffffffffffffffffffffffffffff1673ffffffffffffffffffffffffffffffffffffffff163373ffffffffffffffffffffffffffffffffffffffff1614610dd457600080fd5b8060008381548110610de957610de86116cc565b5b9060005260206000209060080201600401819055505050565b6001600083815260200190815260200160002060009054906101000a900473ffffffffffffffffffffffffffffffffffffffff1673ffffffffffffffffffffffffffffffffffffffff163373ffffffffffffffffffffffffffffffffffffffff1614610e6d57600080fd5b8060008381548110610e8257610e816116cc565b5b9060005260206000209060080201600501819055505050565b828054610ea7906117ca565b90600052602060002090601f016020900481019282610ec95760008555610f10565b82601f10610ee257803560ff1916838001178555610f10565b82800160010185558215610f10579182015b82811115610f0f578235825591602001919060010190610ef4565b5b509050610f1d9190611002565b5090565b604051806101000160405280606081526020016060815260200160608152602001600081526020016000815260200160008152602001600073ffffffffffffffffffffffffffffffffffffffff168152602001600081525090565b828054610f88906117ca565b90600052602060002090601f016020900481019282610faa5760008555610ff1565b82601f10610fc357805160ff1916838001178555610ff1565b82800160010185558215610ff1579182015b82811115610ff0578251825591602001919060010190610fd5565b5b509050610ffe9190611002565b5090565b5b8082111561101b576000816000905550600101611003565b5090565b600080fd5b600080fd5b600073ffffffffffffffffffffffffffffffffffffffff82169050919050565b600061105482611029565b9050919050565b61106481611049565b811461106f57600080fd5b50565b6000813590506110818161105b565b92915050565b60006020828403121561109d5761109c61101f565b5b60006110ab84828501611072565b91505092915050565b600081519050919050565b600082825260208201905092915050565b6000819050602082019050919050565b6000819050919050565b6110f3816110e0565b82525050565b600061110583836110ea565b60208301905092915050565b6000602082019050919050565b6000611129826110b4565b61113381856110bf565b935061113e836110d0565b8060005b8381101561116f57815161115688826110f9565b975061116183611111565b925050600181019050611142565b5085935050505092915050565b60006020820190508181036000830152611196818461111e565b905092915050565b6111a7816110e0565b81146111b257600080fd5b50565b6000813590506111c48161119e565b92915050565b600080fd5b600080fd5b600080fd5b60008083601f8401126111ef576111ee6111ca565b5b8235905067ffffffffffffffff81111561120c5761120b6111cf565b5b602083019150836001820283011115611228576112276111d4565b5b9250929050565b6000806000604084860312156112485761124761101f565b5b6000611256868287016111b5565b935050602084013567ffffffffffffffff81111561127757611276611024565b5b611283868287016111d9565b92509250509250925092565b6000602082840312156112a5576112a461101f565b5b60006112b3848285016111b5565b91505092915050565b6112c581611049565b82525050565b60006020820190506112e060008301846112bc565b92915050565b600081519050919050565b600082825260208201905092915050565b60005b83811015611320578082015181840152602081019050611305565b8381111561132f576000848401525b50505050565b6000601f19601f8301169050919050565b6000611351826112e6565b61135b81856112f1565b935061136b818560208601611302565b61137481611335565b840191505092915050565b611388816110e0565b82525050565b60006101008201905081810360008301526113a9818b611346565b905081810360208301526113bd818a611346565b905081810360408301526113d18189611346565b90506113e0606083018861137f565b6113ed608083018761137f565b6113fa60a083018661137f565b61140760c08301856112bc565b61141460e083018461137f565b9998505050505050505050565b60008060008060008060008060008060e08b8d0312156114445761144361101f565b5b60008b013567ffffffffffffffff81111561146257611461611024565b5b61146e8d828e016111d9565b9a509a505060208b013567ffffffffffffffff81111561149157611490611024565b5b61149d8d828e016111d9565b985098505060408b013567ffffffffffffffff8111156114c0576114bf611024565b5b6114cc8d828e016111d9565b965096505060606114df8d828e016111b5565b94505060806114f08d828e016111b5565b93505060a06115018d828e016111b5565b92505060c06115128d828e016111b5565b9150509295989b9194979a5092959850565b600082825260208201905092915050565b6000611540826112e6565b61154a8185611524565b935061155a818560208601611302565b61156381611335565b840191505092915050565b61157781611049565b82525050565b600061010083016000830151848203600086015261159b8282611535565b915050602083015184820360208601526115b58282611535565b915050604083015184820360408601526115cf8282611535565b91505060608301516115e460608601826110ea565b5060808301516115f760808601826110ea565b5060a083015161160a60a08601826110ea565b5060c083015161161d60c086018261156e565b5060e083015161163060e08601826110ea565b508091505092915050565b60006020820190508181036000830152611655818461157d565b905092915050565b600080604083850312156116745761167361101f565b5b6000611682858286016111b5565b9250506020611693858286016111b5565b9150509250929050565b7f4e487b7100000000000000000000000000000000000000000000000000000000600052604160045260246000fd5b7f4e487b7100000000000000000000000000000000000000000000000000000000600052603260045260246000fd5b7f4e487b7100000000000000000000000000000000000000000000000000000000600052601160045260246000fd5b6000611735826110e0565b91507fffffffffffffffffffffffffffffffffffffffffffffffffffffffffffffffff8203611767576117666116fb565b5b600182019050919050565b600061177d826110e0565b9150600082036117905761178f6116fb565b5b600182039050919050565b7f4e487b7100000000000000000000000000000000000000000000000000000000600052602260045260246000fd5b600060028204905060018216806117e257607f821691505b6020821081036117f5576117f461179b565b5b50919050565b6000611806826110e0565b9150611811836110e0565b925082821015611824576118236116fb565b5b828203905092915050565b82818337600083830152505050565b600061184a83856112f1565b935061185783858461182f565b61186083611335565b840190509392505050565b6000610100820190508181036000830152611887818d8f61183e565b9050818103602083015261189c818b8d61183e565b905081810360408301526118b181898b61183e565b90506118c0606083018861137f565b6118cd608083018761137f565b6118da60a083018661137f565b6118e760c08301856112bc565b6118f460e083018461137f565b9c9b50505050505050505050505056fea26469706673582212202a66995b4507dca71d42b38184daa231efcf254087fc155d954cdff85752ce7d64736f6c634300080d0033",
  "immutableReferences": {},
  "source": "pragma solidity >=0.4.22 <0.9.0;\n//pragma solidity ^0.4.23;\n\n//import \"./RealEstateTrading.sol\";\nimport \"./RealEstateFactory.sol\";\ncontract RealEstateHelper is RealEstateFactory {\n\n  function changeType(uint _realEstateId, string calldata _newTypeEstate) external {\n    require(msg.sender == RealEstateFactory.realEstateToOwner[_realEstateId]);\n    RealEstateFactory.realEstates[_realEstateId].typeEstate = _newTypeEstate;\n  }\n\n  function changePrice(uint _realEstateId, uint _price) external {\n    require(msg.sender == RealEstateFactory.realEstateToOwner[_realEstateId]);\n    RealEstateFactory.realEstates[_realEstateId].price = _price;\n  }\n\n  function changeSurface(uint _realEstateId, uint _surface) external {\n    require(msg.sender == RealEstateFactory.realEstateToOwner[_realEstateId]);\n    RealEstateFactory.realEstates[_realEstateId].surface = _surface;\n  }\n\n  function getRealEstatesByOwner(address _owner) external view returns(uint[] memory) {\n    uint[] memory result = new uint[](ownerRealEstateCount[_owner]);\n    uint counter = 0;\n    for (uint i = 0; i < realEstates.length; i++) {\n      if (realEstateToOwner[i] == _owner) {\n        result[counter] = i;\n        counter++;\n      }\n    }\n    return result;\n  }\n\n}\n",
  "sourcePath": "/Users/dmytrolutsyk/Desktop/ESGI/smartcontract/contracts/RealEstateHelper.sol",
  "compiler": {
    "name": "solc",
    "version": "0.8.13+commit.abaa5c0e.Emscripten.clang"
  },
  "schemaVersion": "3.4.7",
  "updatedAt": "2022-04-15T11:10:07.223Z",
  "devdoc": {
    "kind": "dev",
    "methods": {},
    "version": 1
  },
  "userdoc": {
    "kind": "user",
    "methods": {},
    "version": 1
  }
}