{
  "contractName": "RealEstateHelper",
  "abi": [
    {
      "constant": true,
      "inputs": [
        {
          "name": "",
          "type": "uint256"
        }
      ],
      "name": "realEstateToOwner",
      "outputs": [
        {
          "name": "",
          "type": "address"
        }
      ],
      "payable": false,
      "stateMutability": "view",
      "type": "function"
    },
    {
      "constant": true,
      "inputs": [
        {
          "name": "",
          "type": "uint256"
        }
      ],
      "name": "realEstates",
      "outputs": [
        {
          "name": "typeEstate",
          "type": "string"
        },
        {
          "name": "adress",
          "type": "string"
        },
        {
          "name": "description",
          "type": "string"
        },
        {
          "name": "docHash",
          "type": "string"
        },
        {
          "name": "surface",
          "type": "uint256"
        },
        {
          "name": "price",
          "type": "uint256"
        },
        {
          "name": "vendorAdress",
          "type": "address"
        },
        {
          "name": "pieceNumber",
          "type": "uint256"
        },
        {
          "name": "date",
          "type": "uint256"
        }
      ],
      "payable": false,
      "stateMutability": "view",
      "type": "function"
    },
    {
      "anonymous": false,
      "inputs": [
        {
          "indexed": false,
          "name": "typeEstate",
          "type": "string"
        },
        {
          "indexed": false,
          "name": "adress",
          "type": "string"
        },
        {
          "indexed": false,
          "name": "description",
          "type": "string"
        },
        {
          "indexed": false,
          "name": "docHash",
          "type": "string"
        },
        {
          "indexed": false,
          "name": "realEstateId",
          "type": "uint256"
        },
        {
          "indexed": false,
          "name": "surface",
          "type": "uint256"
        },
        {
          "indexed": false,
          "name": "price",
          "type": "uint256"
        },
        {
          "indexed": false,
          "name": "vendorAdress",
          "type": "address"
        },
        {
          "indexed": false,
          "name": "pieceNumber",
          "type": "uint256"
        },
        {
          "indexed": false,
          "name": "date",
          "type": "uint256"
        }
      ],
      "name": "NewRealEstate",
      "type": "event"
    },
    {
      "constant": false,
      "inputs": [
        {
          "name": "_realEstateId",
          "type": "uint256"
        },
        {
          "name": "_newTypeEstate",
          "type": "string"
        }
      ],
      "name": "changeName",
      "outputs": [],
      "payable": false,
      "stateMutability": "nonpayable",
      "type": "function"
    },
    {
      "constant": false,
      "inputs": [
        {
          "name": "_realEstateId",
          "type": "uint256"
        },
        {
          "name": "_price",
          "type": "uint256"
        }
      ],
      "name": "changePrice",
      "outputs": [],
      "payable": false,
      "stateMutability": "nonpayable",
      "type": "function"
    },
    {
      "constant": false,
      "inputs": [
        {
          "name": "_realEstateId",
          "type": "uint256"
        },
        {
          "name": "_surface",
          "type": "uint256"
        }
      ],
      "name": "changeSurface",
      "outputs": [],
      "payable": false,
      "stateMutability": "nonpayable",
      "type": "function"
    },
    {
      "constant": true,
      "inputs": [
        {
          "name": "_owner",
          "type": "address"
        }
      ],
      "name": "getRealEstatesByOwner",
      "outputs": [
        {
          "name": "",
          "type": "uint256[]"
        }
      ],
      "payable": false,
      "stateMutability": "view",
      "type": "function"
    }
  ],
  "bytecode": "0x608060405234801561001057600080fd5b50610b4f806100206000396000f300608060405260043610610078576000357c0100000000000000000000000000000000000000000000000000000000900463ffffffff1680630f6cebd41461007d57806388f69002146101155780639939594514610182578063a30b5f17146103bb578063b3de019c146103f2578063c39cbef114610429575b600080fd5b34801561008957600080fd5b506100be600480360381019080803573ffffffffffffffffffffffffffffffffffffffff16906020019092919050505061046e565b6040518080602001828103825283818151815260200191508051906020019060200280838360005b838110156101015780820151818401526020810190506100e6565b505050509050019250505060405180910390f35b34801561012157600080fd5b50610140600480360381019080803590602001909291905050506105a0565b604051808273ffffffffffffffffffffffffffffffffffffffff1673ffffffffffffffffffffffffffffffffffffffff16815260200191505060405180910390f35b34801561018e57600080fd5b506101ad600480360381019080803590602001909291905050506105d3565b60405180806020018060200180602001806020018a81526020018981526020018873ffffffffffffffffffffffffffffffffffffffff1673ffffffffffffffffffffffffffffffffffffffff16815260200187815260200186815260200185810385528e818151815260200191508051906020019080838360005b83811015610243578082015181840152602081019050610228565b50505050905090810190601f1680156102705780820380516001836020036101000a031916815260200191505b5085810384528d818151815260200191508051906020019080838360005b838110156102a957808201518184015260208101905061028e565b50505050905090810190601f1680156102d65780820380516001836020036101000a031916815260200191505b5085810383528c818151815260200191508051906020019080838360005b8381101561030f5780820151818401526020810190506102f4565b50505050905090810190601f16801561033c5780820380516001836020036101000a031916815260200191505b5085810382528b818151815260200191508051906020019080838360005b8381101561037557808201518184015260208101905061035a565b50505050905090810190601f1680156103a25780820380516001836020036101000a031916815260200191505b509d505050505050505050505050505060405180910390f35b3480156103c757600080fd5b506103f060048036038101908080359060200190929190803590602001909291905050506108b0565b005b3480156103fe57600080fd5b506104276004803603810190808035906020019092919080359060200190929190505050610946565b005b34801561043557600080fd5b5061046c600480360381019080803590602001909291908035906020019082018035906020019190919293919293905050506109dc565b005b606080600080600260008673ffffffffffffffffffffffffffffffffffffffff1673ffffffffffffffffffffffffffffffffffffffff168152602001908152602001600020546040519080825280602002602001820160405280156104e25781602001602082028038833980820191505090505b50925060009150600090505b600080549050811015610595578473ffffffffffffffffffffffffffffffffffffffff166001600083815260200190815260200160002060009054906101000a900473ffffffffffffffffffffffffffffffffffffffff1673ffffffffffffffffffffffffffffffffffffffff1614156105885780838381518110151561057157fe5b906020019060200201818152505081806001019250505b80806001019150506104ee565b829350505050919050565b60016020528060005260406000206000915054906101000a900473ffffffffffffffffffffffffffffffffffffffff1681565b6000818154811015156105e257fe5b9060005260206000209060090201600091509050806000018054600181600116156101000203166002900480601f01602080910402602001604051908101604052809291908181526020018280546001816001161561010002031660029004801561068e5780601f106106635761010080835404028352916020019161068e565b820191906000526020600020905b81548152906001019060200180831161067157829003601f168201915b505050505090806001018054600181600116156101000203166002900480601f01602080910402602001604051908101604052809291908181526020018280546001816001161561010002031660029004801561072c5780601f106107015761010080835404028352916020019161072c565b820191906000526020600020905b81548152906001019060200180831161070f57829003601f168201915b505050505090806002018054600181600116156101000203166002900480601f0160208091040260200160405190810160405280929190818152602001828054600181600116156101000203166002900480156107ca5780601f1061079f576101008083540402835291602001916107ca565b820191906000526020600020905b8154815290600101906020018083116107ad57829003601f168201915b505050505090806003018054600181600116156101000203166002900480601f0160208091040260200160405190810160405280929190818152602001828054600181600116156101000203166002900480156108685780601f1061083d57610100808354040283529160200191610868565b820191906000526020600020905b81548152906001019060200180831161084b57829003601f168201915b5050505050908060040154908060050154908060060160009054906101000a900473ffffffffffffffffffffffffffffffffffffffff16908060070154908060080154905089565b6001600083815260200190815260200160002060009054906101000a900473ffffffffffffffffffffffffffffffffffffffff1673ffffffffffffffffffffffffffffffffffffffff163373ffffffffffffffffffffffffffffffffffffffff1614151561091d57600080fd5b8060008381548110151561092d57fe5b9060005260206000209060090201600401819055505050565b6001600083815260200190815260200160002060009054906101000a900473ffffffffffffffffffffffffffffffffffffffff1673ffffffffffffffffffffffffffffffffffffffff163373ffffffffffffffffffffffffffffffffffffffff161415156109b357600080fd5b806000838154811015156109c357fe5b9060005260206000209060090201600501819055505050565b6001600084815260200190815260200160002060009054906101000a900473ffffffffffffffffffffffffffffffffffffffff1673ffffffffffffffffffffffffffffffffffffffff163373ffffffffffffffffffffffffffffffffffffffff16141515610a4957600080fd5b8181600085815481101515610a5a57fe5b90600052602060002090600902016000019190610a78929190610a7e565b50505050565b828054600181600116156101000203166002900490600052602060002090601f016020900481019282601f10610abf57803560ff1916838001178555610aed565b82800160010185558215610aed579182015b82811115610aec578235825591602001919060010190610ad1565b5b509050610afa9190610afe565b5090565b610b2091905b80821115610b1c576000816000905550600101610b04565b5090565b905600a165627a7a72305820c87a9ca219d9b56330be0a3d2ee9a318c70f4230fbaaf4f31083aeb078d8ecb70029",
  "source": "//pragma solidity >=0.4.22 <0.9.0;\npragma solidity ^0.4.23;\n\n//import \"./RealEstateTrading.sol\";\nimport \"./RealEstateFactory.sol\";\ncontract RealEstateHelper is RealEstateFactory {\n\n  function changeName(uint _realEstateId, string _newTypeEstate) external {\n    require(msg.sender == RealEstateFactory.realEstateToOwner[_realEstateId]);\n    RealEstateFactory.realEstates[_realEstateId].typeEstate = _newTypeEstate;\n  }\n\n  function changePrice(uint _realEstateId, uint _price) external {\n    require(msg.sender == RealEstateFactory.realEstateToOwner[_realEstateId]);\n    RealEstateFactory.realEstates[_realEstateId].price = _price;\n  }\n\n  function changeSurface(uint _realEstateId, uint _surface) external {\n    require(msg.sender == RealEstateFactory.realEstateToOwner[_realEstateId]);\n    RealEstateFactory.realEstates[_realEstateId].surface = _surface;\n  }\n\n  function getRealEstatesByOwner(address _owner) external view returns(uint[]) {\n    uint[] memory result = new uint[](ownerRealEstateCount[_owner]);\n    uint counter = 0;\n    for (uint i = 0; i < realEstates.length; i++) {\n      if (realEstateToOwner[i] == _owner) {\n        result[counter] = i;\n        counter++;\n      }\n    }\n    return result;\n  }\n\n}\n",
  "sourcePath": "/Users/dmytrolutsyk/Desktop/ESGI/smartcontract/contracts/RealEstateHelper.sol",
  "compiler": {
    "name": "solc",
    "version": "0.4.23+commit.124ca40d.Emscripten.clang"
  },
  "schemaVersion": "3.4.7",
  "updatedAt": "2022-04-14T12:59:42.837Z",
  "devdoc": {
    "methods": {}
  },
  "userdoc": {
    "methods": {}
  }
}