{
  "contractName": "RealEstateFactory",
  "abi": [
    {
      "constant": true,
      "inputs": [
        {
          "name": "",
          "type": "uint256"
        }
      ],
      "name": "realEstateToOwner",
      "outputs": [
        {
          "name": "",
          "type": "address"
        }
      ],
      "payable": false,
      "stateMutability": "view",
      "type": "function"
    },
    {
      "constant": true,
      "inputs": [
        {
          "name": "",
          "type": "uint256"
        }
      ],
      "name": "realEstates",
      "outputs": [
        {
          "name": "typeEstate",
          "type": "string"
        },
        {
          "name": "adress",
          "type": "string"
        },
        {
          "name": "description",
          "type": "string"
        },
        {
          "name": "realEstateId",
          "type": "uint256"
        },
        {
          "name": "surface",
          "type": "uint256"
        },
        {
          "name": "price",
          "type": "uint256"
        },
        {
          "name": "vendorAdress",
          "type": "address"
        },
        {
          "name": "date",
          "type": "uint256"
        }
      ],
      "payable": false,
      "stateMutability": "view",
      "type": "function"
    },
    {
      "anonymous": false,
      "inputs": [
        {
          "indexed": false,
          "name": "typeEstate",
          "type": "string"
        },
        {
          "indexed": false,
          "name": "adress",
          "type": "string"
        },
        {
          "indexed": false,
          "name": "description",
          "type": "string"
        },
        {
          "indexed": false,
          "name": "realEstateId",
          "type": "uint256"
        },
        {
          "indexed": false,
          "name": "surface",
          "type": "uint256"
        },
        {
          "indexed": false,
          "name": "price",
          "type": "uint256"
        },
        {
          "indexed": false,
          "name": "vendorAdress",
          "type": "address"
        },
        {
          "indexed": false,
          "name": "date",
          "type": "uint256"
        }
      ],
      "name": "NewRealEstate",
      "type": "event"
    },
    {
      "anonymous": false,
      "inputs": [
        {
          "indexed": false,
          "name": "typeEstate",
          "type": "string"
        },
        {
          "indexed": false,
          "name": "adress",
          "type": "string"
        },
        {
          "indexed": false,
          "name": "description",
          "type": "string"
        },
        {
          "indexed": false,
          "name": "realEstateId",
          "type": "uint256"
        },
        {
          "indexed": false,
          "name": "surface",
          "type": "uint256"
        },
        {
          "indexed": false,
          "name": "price",
          "type": "uint256"
        },
        {
          "indexed": false,
          "name": "vendorAdress",
          "type": "address"
        },
        {
          "indexed": false,
          "name": "date",
          "type": "uint256"
        }
      ],
      "name": "SellRealEstate",
      "type": "event"
    },
    {
      "constant": false,
      "inputs": [
        {
          "name": "typeEstate",
          "type": "string"
        },
        {
          "name": "adress",
          "type": "string"
        },
        {
          "name": "description",
          "type": "string"
        },
        {
          "name": "realEstateId",
          "type": "uint256"
        },
        {
          "name": "surface",
          "type": "uint256"
        },
        {
          "name": "price",
          "type": "uint256"
        },
        {
          "name": "vendorAdress",
          "type": "address"
        },
        {
          "name": "date",
          "type": "uint256"
        }
      ],
      "name": "createRealEstate",
      "outputs": [],
      "payable": false,
      "stateMutability": "nonpayable",
      "type": "function"
    },
    {
      "constant": false,
      "inputs": [
        {
          "name": "realEstateId",
          "type": "uint256"
        }
      ],
      "name": "buyRealEstate",
      "outputs": [],
      "payable": false,
      "stateMutability": "nonpayable",
      "type": "function"
    }
  ],
  "bytecode": "0x608060405234801561001057600080fd5b50610c0b806100206000396000f300608060405260043610610062576000357c0100000000000000000000000000000000000000000000000000000000900463ffffffff168063867e0f771461006757806388f69002146100945780639939594514610101578063c0ac4720146102ce575b600080fd5b34801561007357600080fd5b5061009260048036038101908080359060200190929190505050610381565b005b3480156100a057600080fd5b506100bf6004803603810190808035906020019092919050505061054d565b604051808273ffffffffffffffffffffffffffffffffffffffff1673ffffffffffffffffffffffffffffffffffffffff16815260200191505060405180910390f35b34801561010d57600080fd5b5061012c60048036038101908080359060200190929190505050610580565b604051808060200180602001806020018981526020018881526020018781526020018673ffffffffffffffffffffffffffffffffffffffff1673ffffffffffffffffffffffffffffffffffffffff16815260200185815260200184810384528c818151815260200191508051906020019080838360005b838110156101be5780820151818401526020810190506101a3565b50505050905090810190601f1680156101eb5780820380516001836020036101000a031916815260200191505b5084810383528b818151815260200191508051906020019080838360005b83811015610224578082015181840152602081019050610209565b50505050905090810190601f1680156102515780820380516001836020036101000a031916815260200191505b5084810382528a818151815260200191508051906020019080838360005b8381101561028a57808201518184015260208101905061026f565b50505050905090810190601f1680156102b75780820380516001836020036101000a031916815260200191505b509b50505050505050505050505060405180910390f35b3480156102da57600080fd5b5061037f600480360381019080803590602001908201803590602001919091929391929390803590602001908201803590602001919091929391929390803590602001908201803590602001919091929391929390803590602001909291908035906020019092919080359060200190929190803573ffffffffffffffffffffffffffffffffffffffff169060200190929190803590602001909291905050506107bf565b005b60008060008381548110151561039357fe5b906000526020600020906008020191506001600084815260200190815260200160002060009054906101000a900473ffffffffffffffffffffffffffffffffffffffff169050808260060160006101000a81548173ffffffffffffffffffffffffffffffffffffffff021916908373ffffffffffffffffffffffffffffffffffffffff1602179055503373ffffffffffffffffffffffffffffffffffffffff168173ffffffffffffffffffffffffffffffffffffffff161415151561045757600080fd5b336001600085815260200190815260200160002060006101000a81548173ffffffffffffffffffffffffffffffffffffffff021916908373ffffffffffffffffffffffffffffffffffffffff160217905550600260003373ffffffffffffffffffffffffffffffffffffffff1673ffffffffffffffffffffffffffffffffffffffff16815260200190815260200160002060008154809291906001019190505550600260008273ffffffffffffffffffffffffffffffffffffffff1673ffffffffffffffffffffffffffffffffffffffff1681526020019081526020016000206000815480929190600190039190505550505050565b60016020528060005260406000206000915054906101000a900473ffffffffffffffffffffffffffffffffffffffff1681565b60008181548110151561058f57fe5b9060005260206000209060080201600091509050806000018054600181600116156101000203166002900480601f01602080910402602001604051908101604052809291908181526020018280546001816001161561010002031660029004801561063b5780601f106106105761010080835404028352916020019161063b565b820191906000526020600020905b81548152906001019060200180831161061e57829003601f168201915b505050505090806001018054600181600116156101000203166002900480601f0160208091040260200160405190810160405280929190818152602001828054600181600116156101000203166002900480156106d95780601f106106ae576101008083540402835291602001916106d9565b820191906000526020600020905b8154815290600101906020018083116106bc57829003601f168201915b505050505090806002018054600181600116156101000203166002900480601f0160208091040260200160405190810160405280929190818152602001828054600181600116156101000203166002900480156107775780601f1061074c57610100808354040283529160200191610777565b820191906000526020600020905b81548152906001019060200180831161075a57829003601f168201915b5050505050908060030154908060040154908060050154908060060160009054906101000a900473ffffffffffffffffffffffffffffffffffffffff16908060070154905088565b600060016000610100604051908101604052808f8f8080601f01602080910402602001604051908101604052809392919081815260200183838082843782019150505050505081526020018d8d8080601f01602080910402602001604051908101604052809392919081815260200183838082843782019150505050505081526020018b8b8080601f01602080910402602001604051908101604052809392919081815260200183838082843782019150505050505081526020018981526020018881526020018781526020018673ffffffffffffffffffffffffffffffffffffffff168152602001858152509080600181540180825580915050906001820390600052602060002090600802016000909192909190915060008201518160000190805190602001906108f3929190610b3a565b506020820151816001019080519060200190610910929190610b3a565b50604082015181600201908051906020019061092d929190610b3a565b50606082015181600301556080820151816004015560a0820151816005015560c08201518160060160006101000a81548173ffffffffffffffffffffffffffffffffffffffff021916908373ffffffffffffffffffffffffffffffffffffffff16021790555060e082015181600701555050039050336001600083815260200190815260200160002060006101000a81548173ffffffffffffffffffffffffffffffffffffffff021916908373ffffffffffffffffffffffffffffffffffffffff160217905550600260003373ffffffffffffffffffffffffffffffffffffffff1673ffffffffffffffffffffffffffffffffffffffff168152602001908152602001600020600081548092919060010191905055507f9fd8b7e261343663b92307f9832e0f507e2eb2047152780b9412f17ba5b7d7828c8c8c8c8c8c8c8c8c8c8c604051808060200180602001806020018981526020018881526020018781526020018673ffffffffffffffffffffffffffffffffffffffff1673ffffffffffffffffffffffffffffffffffffffff16815260200185815260200184810384528f8f82818152602001925080828437820191505084810383528d8d82818152602001925080828437820191505084810382528b8b8281815260200192508082843782019150509e50505050505050505050505050505060405180910390a1505050505050505050505050565b828054600181600116156101000203166002900490600052602060002090601f016020900481019282601f10610b7b57805160ff1916838001178555610ba9565b82800160010185558215610ba9579182015b82811115610ba8578251825591602001919060010190610b8d565b5b509050610bb69190610bba565b5090565b610bdc91905b80821115610bd8576000816000905550600101610bc0565b5090565b905600a165627a7a723058203879f9b180c26e482f6d97711095b278e0a717878b13e798f4f31fe8eec0b8a80029",
  "source": "//pragma solidity >=0.4.22 <0.9.0;\npragma solidity ^0.4.23;\n\n//import \"./ownable.sol\";\n\ncontract RealEstateFactory {\n\n    event NewRealEstate(string typeEstate, string adress, string description, uint realEstateId, uint surface, uint price, address vendorAdress, uint date);\n    event SellRealEstate(string typeEstate, string adress, string description, uint realEstateId, uint surface, uint price, address vendorAdress, uint date);\n\n\n    struct RealEstate {\n      string typeEstate;\n      string adress;\n      string description;\n      uint realEstateId;\n      uint surface;\n      uint price;\n      address vendorAdress;\n      uint date;\n    }\n\n    RealEstate[] public realEstates;\n\n    mapping (uint => address) public realEstateToOwner;\n    mapping (address => uint) ownerRealEstateCount;\n\n    function createRealEstate(string typeEstate, string adress, string description, uint realEstateId, uint surface, uint price, address vendorAdress, uint date) external /*returns (RealEstate)*/{\n        uint id = realEstates.push(RealEstate(typeEstate, adress, description, realEstateId, surface, price, vendorAdress, date)) - 1;\n        realEstateToOwner[id] = msg.sender;\n        ownerRealEstateCount[msg.sender]++;\n        emit NewRealEstate(typeEstate, adress, description, realEstateId, surface, price, vendorAdress, date);\n        //return realEstates[id];\n    }\n\n    function buyRealEstate(uint realEstateId) external {\n      RealEstate storage estateToSell = realEstates[realEstateId];\n      address oldOwner = realEstateToOwner[realEstateId];\n      estateToSell.vendorAdress = oldOwner;\n\n      require(oldOwner != msg.sender);\n      realEstateToOwner[realEstateId] = msg.sender;\n      ownerRealEstateCount[msg.sender]++;\n      ownerRealEstateCount[oldOwner]--;\n    }\n\n}\n",
  "sourcePath": "/Users/dmytrolutsyk/Desktop/ESGI/smartcontract/contracts/RealEstateFactory.sol",
  "compiler": {
    "name": "solc",
    "version": "0.4.23+commit.124ca40d.Emscripten.clang"
  },
  "schemaVersion": "3.4.7",
  "updatedAt": "2022-04-15T09:02:38.872Z",
  "devdoc": {
    "methods": {}
  },
  "userdoc": {
    "methods": {}
  }
}